:100000000C9430010C943C070C9411070C94E606F8
:100010000C94BB060C9490060C9465060C943A065E
:100020000C940F060C9461010C9461010C94610115
:100030000C9461010C9461010C9461010C946101B8
:100040000C9461010C9461010C9461010C946101A8
:100050000C9461010C9461010C9461010C94C50530
:100060000C9461010C9491070C9467070C94610146
:100070000C9461010C9461010C9461010C94610178
:100080000C9461010C9461010C9461010C94610168
:100090000C9461010C9461010C9461010C94610158
:1000A0000C9461010C9461010C9461010C94610148
:1000B0000C9461010C9461010C9461010C94610138
:1000C0000C9461010C9461010C9461010C94610128
:1000D0000C9461010C9461010C9461010C94610118
:1000E0000C9461010C9420020C9448020C94CD01F4
:1000F0000C94B9010C94AE010C94AA010C94DF028B
:100100000C942A020C9498010C94B6010C943402BD
:100110000C94BF010C94C9010C94C7070C94A7025E
:100120000C94C3010C94DF010C9493010C94D7013F
:100130000C9499020C94E9010C94D1010C94B20135
:100140000C942C030C9485020C9449020C94E50148
:100150000C9476020C94DB0100002100240027009F
:100160002A002D00300033000101000004010701C6
:100170000A0100002200250028002B002E0031007B
:10018000340002010000050108010B010505050509
:10019000070508080808020202020A0A08080404FF
:1001A000040401010101010101010303030303032D
:1001B0000303040707070C0C0C0C0C0C0C0C0202BC
:1001C000020206060606060606060B0B0B0B0B0BB9
:1001D0000B0B010210202008081020401020408046
:1001E00002010201080402010102040810204080FB
:1001F0008040201008040201800402018040201089
:1002000008040201080402010102040810204080D1
:10021000010204081020408000000A0B02090C0DA6
:100220000E080703040100000000000000000000A9
:1002300000000000000000000000000000000000BE
:10024000000000001211100000000000000000007B
:100250000000000000000000000000000000C707D0
:1002600011241FBECFEFD1E2DEBFCDBF00E00CBF37
:1002700013E0A0E0B2E0EEEBF8E100E00BBF02C05B
:1002800007900D92AE32B107D9F723E0AEE2B3E0AA
:1002900001C01D92AE3DB207E1F711E0C0E3D1E02D
:1002A00000E006C021970109802FFE010E94550C35
:1002B000CF32D10780E00807A9F70E9407080C9405
:1002C0005D0C0C940000282F30E0F901E85EFD4F32
:1002D0009491F901EE52FE4F449124573E4FF9019B
:1002E0002491222309F435C0992311F191509231C0
:1002F000F8F4E92FF0E08827EF57FE4F8F4F0C946A
:10030000550CB201B6019301AA01AE019801B901E1
:10031000BF01C301C901CD01D101D701DB019801A2
:10032000DF01E501E901809180008F7780938000F3
:10033000E22FF0E0EE0FFF1FEE58FE4FA591B491B3
:100340008FB7F894EC91611148C040954E234C93BF
:100350008FBF0895809180008F7DE8CF80918000CD
:10036000877FE4CF84B58F7784BDE2CF84B58F7D5E
:10037000FBCF8091B0008F778093B000D9CF809170
:10038000B0008F7DF9CF809190008F77809390009F
:10039000CFCF809190008F7DF9CF80919000877FA3
:1003A000F5CF8091A0008F778093A000C1CF80917E
:1003B000A0008F7DF9CF8091A000877FF5CF80913D
:1003C00020018F7780932001B3CF809120018F7D12
:1003D000F9CF80912001877FF5CF4E2BB8CFCF93F7
:1003E000DF9390E0FC01EE52FE4F249184579E4F24
:1003F000FC0184918823D1F090E0880F991FFC01C3
:10040000E85AFE4FA591B491FC01EE58FE4FC591FC
:10041000D49161110EC09FB7F8948C91E22FE095B2
:100420008E238C932881E223E8839FBFDF91CF91B5
:1004300008958FB7F894EC91E22BEC938FBFF6CF31
:10044000809132039091330301969093330380930C
:100450003203089580913203909133030197909372
:10046000330380933203089580912E0390912F03DC
:10047000A0913003B09131030196A11DB11D80936D
:100480002E0390932F03A0933003B093310308956C
:100490000895AF92BF92CF92DF92EF92FF920F93A7
:1004A0001F93CF93DF936C017B018B01040F151F0A
:1004B000EB015E01AE18BF08C017D10759F0699172
:1004C000D601ED91FC910190F081E02DC6011995C6
:1004D000892B79F7C501DF91CF911F910F91FF9083
:1004E000EF90DF90CF90BF90AF900895FC01538DB7
:1004F000448D252F30E0842F90E0821B930B5417FE
:1005000010F0CF96089501970895FC01918D828D8A
:10051000981761F0A28DAE0FBF2FB11D5D968C9123
:10052000928D9F5F9F73928F90E008958FEF9FEF62
:100530000895FC01918D828D981731F0828DE80F1E
:10054000F11D858D90E008958FEF9FEF0895FC01D8
:10055000918D228D892F90E0805C9F4F821B9109A5
:100560008F739927089589E393E00E94A70221E001
:10057000892B09F420E0822F0895FC01A48DA80F97
:10058000B92FB11DA35ABF4F2C91848D90E00196D5
:100590008F739927848FA689B7892C93A089B189F5
:1005A0008C91837080648C93938D848D981306C096
:1005B0000288F389E02D80818F7D80830895EF92FA
:1005C000FF920F931F93CF93DF93EC0181E0888F0D
:1005D0009B8D8C8D98131AC0E889F989808185FFDD
:1005E00015C09FB7F894EE89FF896083E889F9897F
:1005F00080818370806480839FBF81E090E0DF9181
:10060000CF911F910F91FF90EF900895F62E0B8DD3
:1006100010E00F5F1F4F0F731127E02E8C8D8E118E
:100620000CC00FB607FCFACFE889F989808185FFF5
:10063000F5CFCE010E94BD02F1CFEB8DEC0FFD2F67
:10064000F11DE35AFF4FF0829FB7F8940B8FEA89B0
:10065000FB8980818062CFCFCF93DF93EC01888DBF
:100660008823B9F0AA89BB89E889F9898C9185FD2D
:1006700003C0808186FD0DC00FB607FCF7CF8C91BB
:1006800085FFF2CF808185FFEDCFCE010E94BD02B4
:10069000E9CFDF91CF91089580E090E0892B29F098
:1006A0000E94B30281110E94000080E090E0892B3B
:1006B00049F080E090E0892B29F00E940000811130
:1006C0000E94000080E090E0892B49F080E090E0FB
:1006D000892B29F00E94000081110E94000080E017
:1006E00090E0892B49F080E090E0892B29F00E946E
:1006F000000081110C9400000895FC01019000207D
:10070000E9F73197AF01481B590BBC0189E393E02E
:100710000C9449028F929F92AF92BF920F931F93B6
:10072000CF93DF93CDB7DEB7A1970FB6F894DEBFB6
:100730000FBECDBF19A2423008F44AE08E010F5D12
:100740001F4F842E912CB12CA12CA50194010E9445
:10075000330CE62FB901CA01EA30F4F4E05DD801A8
:10076000EE938D01232B242B252B79F790E080E04D
:10077000109719F0CD010E947D03A1960FB6F89451
:10078000DEBF0FBECDBFDF91CF911F910F91BF9004
:10079000AF909F908F900895E95CE1CFCF92DF9268
:1007A000EF92FF92CF93DF936B017C016DE289E3BF
:1007B00093E00E94DF02EC0166277727CB016C19DA
:1007C0007D098E099F094AE00E948A038C0F9D1FB4
:1007D000DF91CF91FF90EF90DF90CF900895CF936E
:1007E000DF930E947D03EC0188E392E00E947D0389
:1007F0008C0F9D1FDF91CF91089561E084E00E94EE
:10080000630161E085E00E94630183E090E09093E2
:100810001502809314028BE392E00C94EF0361E0E5
:1008200084E00E94630160E085E00E94630182E051
:1008300090E0909315028093140283E592E00C946B
:10084000EF034F925F926F927F928F929F92AF923F
:10085000BF92CF92DF92EF92FF920F931F93CF93AD
:100860006B017C01742EAC019B010E942E0C88232D
:1008700099F08CE692E0CF911F910F91FF90EF904D
:10088000DF90CF90BF90AF909F908F907F906F90B0
:100890005F904F900C947D0346015701E894B7F8A0
:1008A0002FEF3FEF4FE75FE7C501B4010E942E0C29
:1008B00081110DC02FEF3FEF4FE75FE7C501B40196
:1008C0000E945D0A18161CF480E792E0D4CF2FEF47
:1008D0003FEF4FE75FE4C701B6010E94BC0B18165B
:1008E0001CF484E792E0C7CF2FEF3FEF4FE75FECB8
:1008F000C701B6010E945D0A87FDF3CF20E030E01A
:10090000A901C701B6010E945D0A10E000E087FF5F
:100910000AC06DE289E393E00E94DF028C01F7FADE
:10092000F094F7F8F094C0E060E070E080E09FE3BE
:100930007C1641F020E030E040E251E40E94620A7F
:10094000CF5FF6CFA70196010E94F1092B013C0170
:100950000E94DB0A4B015C014AE00E948A037C0191
:10096000E00EF11ECC23C1F1C501B4010E940A0BB7
:100970009B01AC01C301B2010E94F0094B015C0173
:100980006EE289E393E00E94DF02E80EF91EC15097
:1009900018F120E030E040E251E4C501B4010E94CA
:1009A000C10B2B013C010E94DB0A4B01B12CA12C95
:1009B0004AE0C501B4010E948A03E80EF91EC50190
:1009C000B4010E940A0B9B01AC01C301B2010E9459
:1009D000F0094B015C01DBCFC701CF911F910F9153
:1009E000FF90EF90DF90CF90BF90AF909F908F904F
:1009F0007F906F905F904F9008958F929F92AF92EB
:100A0000BF92CF92DF92EF92FF928FB7F894C0908F
:100A1000D603D090D703E090D803F090D9038FBFCE
:100A200060912E0370912F038091300390913103D8
:100A30000E940A0B4B015C018091DA039091DB0369
:100A4000A091DC03B091DD03A7019601281B390BAF
:100A50004A0B5B0BCA01B9010E940A0B20E030E08F
:100A60004AE754E40E94620A9B01AC01C501B4014B
:100A70000E94620A20E030E040E951E40E94620AEC
:100A800020E030E040E752E40E94C10B6093000296
:100A900070930102809302029093030210922E033E
:100AA00010922F031092300310923103C092DA0398
:100AB000D092DB03E092DC03F092DD0342E00E947F
:100AC000210488E392E00E947D036091000270910E
:100AD000010280910202909103020E94D40ACB018C
:100AE000FF90EF90DF90CF90BF90AF909F908F904E
:100AF0000895CF92DF92EF92FF92CF93DF93EC01B4
:100B00000E94FD04BC01990F880B990B0E940C0BED
:100B10006B017C01CC0FDD1FCC0FDD1FCE5EDD4FE6
:100B2000688179818A819B8120911402309115021C
:100B3000215031092430310518F5220F331F220FBF
:100B4000331FF901EA5EFD4F2081318142815381DB
:100B50000E94620AA70196010E94C10B6B017C01F1
:100B600042E00E94210488E392E00E947D03C701D5
:100B7000B601DF91CF91FF90EF90DF90CF90089575
:100B800020E030E040E85FEBE3CF1F920F920FB61A
:100B90000F9211242F933F938F939F93AF93BF9303
:100BA0008091D6039091D703A091D803B091D90337
:100BB0003091380323E0230F2D3758F50196A11DFE
:100BC000B11D209338038093D6039093D703A0934D
:100BD000D803B093D9038091340390913503A09149
:100BE0003603B09137030196A11DB11D80933403E4
:100BF00090933503A0933603B0933703BF91AF9121
:100C00009F918F913F912F910F900FBE0F901F904A
:100C1000189526E8230F0296A11DB11DD2CF1F9271
:100C20000F920FB60F9211240BB60F922F933F9392
:100C30004F935F936F937F938F939F93AF93BF93E4
:100C4000EF93FF93E0911202F09113021995FF9137
:100C5000EF91BF91AF919F918F917F916F915F9134
:100C60004F913F912F910F900BBE0F900FBE0F90A1
:100C70001F9018951F920F920FB60F9211240BB66A
:100C80000F922F933F934F935F936F937F938F9325
:100C90009F93AF93BF93EF93FF93E0911002F09176
:100CA00011021995FF91EF91BF91AF919F918F9193
:100CB0007F916F915F914F913F912F910F900BBE5C
:100CC0000F900FBE0F901F9018951F920F920FB6A6
:100CD0000F9211240BB60F922F933F934F935F9374
:100CE0006F937F938F939F93AF93BF93EF93FF93F4
:100CF000E0910602F09107021995FF91EF91BF91E3
:100D0000AF919F918F917F916F915F914F913F91A3
:100D10002F910F900BBE0F900FBE0F901F90189544
:100D20001F920F920FB60F9211240BB60F922F93B2
:100D30003F934F935F936F937F938F939F93AF9363
:100D4000BF93EF93FF93E0910402F0910502199590
:100D5000FF91EF91BF91AF919F918F917F916F9193
:100D60005F914F913F912F910F900BBE0F900FBE4F
:100D70000F901F9018951F920F920FB60F9211248B
:100D80000BB60F922F933F934F935F936F937F9385
:100D90008F939F93AF93BF93EF93FF93E0910E02D6
:100DA000F0910F021995FF91EF91BF91AF919F9133
:100DB0008F917F916F915F914F913F912F910F9004
:100DC0000BBE0F900FBE0F901F9018951F920F92A1
:100DD0000FB60F9211240BB60F922F933F934F93A0
:100DE0005F936F937F938F939F93AF93BF93EF9393
:100DF000FF93E0910C02F0910D021995FF91EF9194
:100E0000BF91AF919F918F917F916F915F914F9122
:100E10003F912F910F900BBE0F900FBE0F901F9020
:100E200018951F920F920FB60F9211240BB60F92C6
:100E30002F933F934F935F936F937F938F939F93E2
:100E4000AF93BF93EF93FF93E0910A02F0910B02EF
:100E50001995FF91EF91BF91AF919F918F917F91E4
:100E60006F915F914F913F912F910F900BBE0F901B
:100E70000FBE0F901F9018951F920F920FB60F92F2
:100E800011240BB60F922F933F934F935F936F9361
:100E90007F938F939F93AF93BF93EF93FF93E091D3
:100EA0000802F09109021995FF91EF91BF91AF915E
:100EB0009F918F917F916F915F914F913F912F9172
:100EC0000F900BBE0F900FBE0F901F9018951F92A2
:100ED0000F920FB60F9211240BB60F922F933F93E0
:100EE0004F935F936F937F938F939F93AF93BF9332
:100EF000EF93FF9389E393E00E94BD02FF91EF918E
:100F0000BF91AF919F918F917F916F915F914F9121
:100F10003F912F910F900BBE0F900FBE0F901F901F
:100F200018951F920F920FB60F9211240BB60F92C5
:100F30002F938F939F93EF93FF93E0914903F09149
:100F40004A038081E0914F03F091500382FD1DC060
:100F50009081809152038F5F8F732091530382178A
:100F600041F0E0915203F0E0E75CFC4F958F8093F5
:100F70005203FF91EF919F918F912F910F900BBE94
:100F80000F900FBE0F901F9018958081F2CFE9E36C
:100F9000F3E01382128288EE93E0A0E0B0E0848355
:100FA0009583A683B7838AE292E09183808385EC60
:100FB00090E09587848784EC90E09787868780EC23
:100FC00090E0918B808B81EC90E0938B828B82EC14
:100FD00090E0958B848B86EC90E0978B868B118EBE
:100FE000128E138E148E2FB7F8948091D6039091A1
:100FF000D703A091D803B091D9032FBF8093DA0310
:101000009093DB03A093DC03B093DD030895789401
:1010100084B5826084BD84B5816084BD85B58260FD
:1010200085BD85B5816085BD80916E0081608093AE
:101030006E00109281008091810082608093810017
:101040008091810081608093810080918000816027
:10105000809380008091B10084608093B100809182
:10106000B00081608093B000809191008260809395
:101070009100809191008160809391008091900017
:101080008160809390008091A10082608093A10094
:101090008091A10081608093A1008091A000816077
:1010A0008093A00080912101826080932101809132
:1010B00021018160809321018091200181608093D2
:1010C000200180917A00846080937A0080917A0078
:1010D000826080937A0080917A00816080937A00A8
:1010E00080917A00806880937A001092C100E0912C
:1010F0004903F0914A0382E08083E0914503F09137
:1011000046031082E0914703F091480380E1808319
:1011100010925103E0914D03F0914E0386E08083DD
:10112000E0914B03F0914C03808180618083E091DA
:101130004B03F0914C03808188608083E0914B03E6
:10114000F0914C03808180688083E0914B03F091A3
:101150004C0380818F7D808360E082E00E94EF01FC
:1011600080E292E0909305028093040280916A00ED
:10117000836080936A00EC9A60E083E00E94EF0154
:101180008AE292E0909307028093060280916A00BF
:101190008C6080936A00ED9A60E082E10E94EF012A
:1011A00084E392E090930F0280930E028091690095
:1011B0008F73806480936900EB9A61E084E00E9401
:1011C000EF0161E085E00E94EF012FB7F894809174
:1011D000D6039091D703A091D803B091D9032FBF24
:1011E0004091DA035091DB036091DC037091DD03E1
:1011F000841B950BA60BB70B81319742A105B10556
:1012000010F00E94FD048091320390913303181670
:1012100019060CF074C0809114029091150284306C
:1012200091050CF053C08230910521F18330910576
:1012300081F1019771F482E090E00E94790520E04D
:1012400030E048E454E40E94BC0B181674F40E9489
:101250000F048091320390913303019790933303ED
:10126000809332030E944C03B0CF88E792E00E9443
:10127000EF03EFCF83E090E00E94790520E030E0BB
:1012800048E454E40E94BC0B18167CF70E94FD034E
:10129000E0CF84E090E00E94790520E030E048E46F
:1012A00054E40E94BC0B181604F760E084E00E942E
:1012B000630161E085E00E94630184E090E0909327
:1012C00015028093140285E992E0D1CF8EEA92E074
:1012D0000E947D036091140270911502072E000C8C
:1012E000880B990B97FF07C00E94CE0388E392E01A
:1012F0000E947D03AECF4AE00E948A03F7CF892B7C
:1013000009F4B0CF809114029091150282309105BA
:101310000CF44DC08330910561F184309105C1F129
:101320000297F1F481E090E00E94790520E030E836
:101330004BEB55E40E945D0A87FF18C060E084E033
:101340000E94630160E085E00E94630181E090E01B
:10135000909315028093140281ED92E00E94EF03B6
:101360008091320390913303019678CF89EE92E019
:10137000F5CF82E090E00E94790520E030E84BEB69
:1013800055E40E945D0A87FFF1CF0E940F04E8CF69
:1013900083E090E00E94790520E030E84BEB55E4D3
:1013A0000E945D0A87FFE2CF0E94FD03D9CF89E04A
:1013B00093E00E947D036091140270911502072E44
:1013C000000C880B990B97FF07C00E94CE0388E39F
:1013D00092E00E947D03C4CF4AE00E948A03F7CFC7
:1013E0005058BB27AA270E94080A0C94820B0E941F
:1013F000740B38F00E947B0B20F039F49F3F19F4F6
:1014000026F40C94710B0EF4E095E7FB0C946B0B37
:10141000E92F0E94930B58F3BA17620773078407EA
:10142000950720F079F4A6F50C94B50B0EF4E09531
:101430000B2EBA2FA02D0B01B90190010C01CA018E
:10144000A0011124FF27591B99F0593F50F4503E39
:1014500068F11A16F040A22F232F342F4427585F2B
:10146000F3CF469537952795A795F0405395C9F743
:101470007EF41F16BA0B620B730B840BBAF09150FB
:10148000A1F0FF0FBB1F661F771F881FC2F70EC09A
:10149000BA0F621F731F841F48F48795779567956D
:1014A000B795F7959E3F08F0B0CF9395880F08F059
:1014B0009927EE0F9795879508950E94470B08F49A
:1014C00081E008950E94760A0C94820B0E947B0BA7
:1014D00058F00E94740B40F029F45F3F29F00C94FF
:1014E0006B0B51110C94B60B0C94710B0E94930B67
:1014F00068F39923B1F3552391F3951B550BBB2743
:10150000AA2762177307840738F09F5F5F4F220F87
:10151000331F441FAA1FA9F335D00E2E3AF0E0E87E
:1015200032D091505040E695001CCAF72BD0FE2FC8
:1015300029D0660F771F881FBB1F2617370748075C
:10154000AB07B0E809F0BB0B802DBF01FF27935814
:101550005F4F3AF09E3F510578F00C946B0B0C9462
:10156000B60B5F3FE4F3983ED4F386957795679585
:10157000B795F7959F5FC9F7880F911D9695879549
:1015800097F90895E1E0660F771F881FBB1F621768
:1015900073078407BA0720F0621B730B840BBA0B26
:1015A000EE1F88F7E09508950E94DB0A6894B11158
:1015B0000C94B60B08950E949B0B88F09F5798F0EF
:1015C000B92F9927B751B0F0E1F0660F771F881F48
:1015D000991F1AF0BA95C9F714C0B13091F00E9462
:1015E000B50BB1E008950C94B50B672F782F8827C1
:1015F000B85F39F0B93FCCF3869577956795B39589
:10160000D9F73EF490958095709561957F4F8F4FF7
:101610009F4F0895E89409C097FB3EF490958095FC
:10162000709561957F4F8F4F9F4F9923A9F0F92FA8
:1016300096E9BB279395F695879577956795B79526
:10164000F111F8CFFAF4BB0F11F460FF1BC06F5F0C
:101650007F4F8F4F9F4F16C0882311F096E911C01E
:10166000772321F09EE8872F762F05C0662371F03F
:1016700096E8862F70E060E02AF09A95660F771F53
:10168000881FDAF7880F9695879597F90895990F2F
:101690000008550FAA0BE0E8FEEF16161706E8073C
:1016A000F907C0F012161306E407F50798F0621B5D
:1016B000730B840B950B39F40A2661F0232B242B32
:1016C000252B21F408950A2609F4A140A6958FEF51
:1016D000811D811D089597F99F6780E870E060E0A3
:1016E00008959FEF80EC089500240A9416161706BB
:1016F00018060906089500240A9412161306140603
:1017000005060895092E0394000C11F4882352F065
:10171000BB0F40F4BF2B11F460FF04C06F5F7F4F1D
:101720008F4F9F4F089557FD9058440F551F59F004
:101730005F3F71F04795880F97FB991F61F09F3FBE
:1017400079F087950895121613061406551FF2CFE7
:101750004695F1DF08C0161617061806991FF1CF37
:1017600086957105610508940895E894BB2766275E
:101770007727CB0197F908950E94470B08F48FEF64
:1017800008950E94D40B0C94820B0E94740B38F0C5
:101790000E947B0B20F0952311F00C946B0B0C94A2
:1017A000710B11240C94B60B0E94930B70F3959F50
:1017B000C1F3950F50E0551F629FF001729FBB2748
:1017C000F00DB11D639FAA27F00DB11DAA1F649FE4
:1017D0006627B00DA11D661F829F2227B00DA11D97
:1017E000621F739FB00DA11D621F839FA00D611D1D
:1017F000221F749F3327A00D611D231F849F600D3E
:10180000211D822F762F6A2F11249F5750409AF066
:10181000F1F088234AF0EE0FFF1FBB1F661F771FF2
:10182000881F91505040A9F79E3F510580F00C94BD
:101830006B0B0C94B60B5F3FE4F3983ED4F38695A4
:1018400077956795B795F795E7959F5FC1F7FE2B5D
:10185000880F911D9695879597F908950E94470BDB
:10186000880B990B0895A1E21A2EAA1BBB1BFD0140
:101870000DC0AA1FBB1FEE1FFF1FA217B307E4076F
:10188000F50720F0A21BB30BE40BF50B661F771FC7
:10189000881F991F1A9469F76095709580959095A7
:1018A0009B01AC01BD01CF010895EE0FFF1F881F02
:0E18B0008BBF0790F691E02D1994F894FFCFAE
:1018BE00000080BF4802480248024802480248021F
:1018CE00480248020100AAF13A4039B4C83F00006C
:1018DE00803FE17A343F00000000DF0249027602C9
:1018EE002C03A702850299020D0A005368696674DB
:1018FE00656420696E746F20746869726420676510
:10190E006172005368696674656420696E746F2035
:10191E007365636F6E642067656172006E616E0041
:10192E00696E66006F766600456E67696E65207338
:10193E0070656564206C6F7720666F7220757073AA
:10194E0068696674005368696674656420696E74AC
:10195E006F20666F757274682067656172007570AE
:10196E0020736869667420696E76616C69643A20CA
:10197E0063757272656E742067656172206973207B
:10198E00005368696674656420696E746F206669B9
:10199E00727374206765617200456E67696E6520AB
:1019AE007370656564206869676820666F7220646D
:1019BE006F776E736869667400646F776E207368F4
:1019CE0069667420696E76616C69643A206375721B
:0E19DE0072656E742067656172206973200067
:00000001FF
