:100000000C9430010C94A2070C9477070C944C07C5
:100010000C9421070C94F6060C94CB060C94A006C5
:100020000C9475060C9461010C9461010C946101AF
:100030000C9461010C9461010C9461010C946101B8
:100040000C9461010C9461010C9461010C946101A8
:100050000C9461010C9461010C9461010C942B06C9
:100060000C9461010C94F7070C94CD070C9461017A
:100070000C9461010C9461010C9461010C94610178
:100080000C9461010C9461010C9461010C94610168
:100090000C9461010C9461010C9461010C94610158
:1000A0000C9461010C9461010C9461010C94610148
:1000B0000C9461010C9461010C9461010C94610138
:1000C0000C9461010C9461010C9461010C94610128
:1000D0000C9461010C9461010C9461010C94610118
:1000E0000C9461010C9499020C9493010C94DF011F
:1000F0000C94B6010C94E9010C9434020C94DF02C8
:100100000C94AE010C94AA010C9420020C942A02C7
:100110000C942D080C94BF010C94DB010C94480244
:100120000C942C030C9485020C94C9010C94CD0101
:100130000C9476020C94B2010C94B9010C9449020F
:100140000C94D7010C94E5010C94A7020C94C30104
:100150000C9498010C94D101000021002400270088
:100160002A002D00300033000101000004010701C6
:100170000A0100002200250028002B002E0031007B
:10018000340002010000050108010B010505050509
:10019000070508080808020202020A0A08080404FF
:1001A000040401010101010101010303030303032D
:1001B0000303040707070C0C0C0C0C0C0C0C0202BC
:1001C000020206060606060606060B0B0B0B0B0BB9
:1001D0000B0B010210202008081020401020408046
:1001E00002010201080402010102040810204080FB
:1001F0008040201008040201800402018040201089
:1002000008040201080402010102040810204080D1
:10021000010204081020408000000A0B02090C0DA6
:100220000E080703040100000000000000000000A9
:1002300000000000000000000000000000000000BE
:10024000000000001211100000000000000000007B
:1002500000000000000000000000000000002D0869
:1002600011241FBECFEFD1E2DEBFCDBF00E00CBF37
:1002700013E0A0E0B2E0E8E0F9E100E00BBF02C06B
:1002800007900D92AC32B107D9F723E0ACE2B3E0AE
:1002900001C01D92AC3DB207E1F711E0C0E3D1E02F
:1002A00000E006C021970109802FFE010E947A0C10
:1002B000CF32D10780E00807A9F70E946D080C949F
:1002C000820C0C940000282F30E0F901E85EFD4F0D
:1002D0009491F901EE52FE4F449124573E4FF9019B
:1002E0002491222309F435C0992311F191509231C0
:1002F000F8F4E92FF0E08827EF57FE4F8F4F0C946A
:100300007A0CB201B6019301AA01AE019801B901BC
:10031000BF01C301C901CD01D101D701DB019801A2
:10032000DF01E501E901809180008F7780938000F3
:10033000E22FF0E0EE0FFF1FEE58FE4FA591B491B3
:100340008FB7F894EC91611148C040954E234C93BF
:100350008FBF0895809180008F7DE8CF80918000CD
:10036000877FE4CF84B58F7784BDE2CF84B58F7D5E
:10037000FBCF8091B0008F778093B000D9CF809170
:10038000B0008F7DF9CF809190008F77809390009F
:10039000CFCF809190008F7DF9CF80919000877FA3
:1003A000F5CF8091A0008F778093A000C1CF80917E
:1003B000A0008F7DF9CF8091A000877FF5CF80913D
:1003C00020018F7780932001B3CF809120018F7D12
:1003D000F9CF80912001877FF5CF4E2BB8CFCF93F7
:1003E000DF9390E0FC01EE52FE4F249184579E4F24
:1003F000FC0184918823D1F090E0880F991FFC01C3
:10040000E85AFE4FA591B491FC01EE58FE4FC591FC
:10041000D49161110EC09FB7F8948C91E22FE095B2
:100420008E238C932881E223E8839FBFDF91CF91B5
:1004300008958FB7F894EC91E22BEC938FBFF6CF31
:100440008091300390913103019690933103809312
:100450003003089580913003909131030197909378
:10046000310380933003089580912C0390912D03E4
:10047000A0912E03B0912F030196A11DB11D809371
:100480002C0390932D03A0932E03B0932F03089574
:100490000895AF92BF92CF92DF92EF92FF920F93A7
:1004A0001F93CF93DF936C017B018B01040F151F0A
:1004B000EB015E01AE18BF08C017D10759F0699172
:1004C000D601ED91FC910190F081E02DC6011995C6
:1004D000892B79F7C501DF91CF911F910F91FF9083
:1004E000EF90DF90CF90BF90AF900895FC01538DB7
:1004F000448D252F30E0842F90E0821B930B5417FE
:1005000010F0CF96089501970895FC01918D828D8A
:10051000981761F0A28DAE0FBF2FB11D5D968C9123
:10052000928D9F5F9F73928F90E008958FEF9FEF62
:100530000895FC01918D828D981731F0828DE80F1E
:10054000F11D858D90E008958FEF9FEF0895FC01D8
:10055000918D228D892F90E0805C9F4F821B9109A5
:100560008F739927089587E393E00E94A70221E003
:10057000892B09F420E0822F0895FC01A48DA80F97
:10058000B92FB11DA35ABF4F2C91848D90E00196D5
:100590008F739927848FA689B7892C93A089B189F5
:1005A0008C91837080648C93938D848D981306C096
:1005B0000288F389E02D80818F7D80830895EF92FA
:1005C000FF920F931F93CF93DF93EC0181E0888F0D
:1005D0009B8D8C8D98131AC0E889F989808185FFDD
:1005E00015C09FB7F894EE89FF896083E889F9897F
:1005F00080818370806480839FBF81E090E0DF9181
:10060000CF911F910F91FF90EF900895F62E0B8DD3
:1006100010E00F5F1F4F0F731127E02E8C8D8E118E
:100620000CC00FB607FCFACFE889F989808185FFF5
:10063000F5CFCE010E94BD02F1CFEB8DEC0FFD2F67
:10064000F11DE35AFF4FF0829FB7F8940B8FEA89B0
:10065000FB8980818062CFCFCF93DF93EC01888DBF
:100660008823B9F0AA89BB89E889F9898C9185FD2D
:1006700003C0808186FD0DC00FB607FCF7CF8C91BB
:1006800085FFF2CF808185FFEDCFCE010E94BD02B4
:10069000E9CFDF91CF91089580E090E0892B29F098
:1006A0000E94B30281110E94000080E090E0892B3B
:1006B00049F080E090E0892B29F00E940000811130
:1006C0000E94000080E090E0892B49F080E090E0FB
:1006D000892B29F00E94000081110E94000080E017
:1006E00090E0892B49F080E090E0892B29F00E946E
:1006F000000081110C9400000895FC01019000207D
:10070000E9F73197AF01481B590BBC0187E393E030
:100710000C9449028F929F92AF92BF920F931F93B6
:10072000CF93DF93CDB7DEB7A1970FB6F894DEBFB6
:100730000FBECDBF19A2423008F44AE08E010F5D12
:100740001F4F842E912CB12CA12CA50194010E9445
:10075000580CE62FB901CA01EA30F4F4E05DD80183
:10076000EE938D01232B242B252B79F790E080E04D
:10077000109719F0CD010E947D03A1960FB6F89451
:10078000DEBF0FBECDBFDF91CF911F910F91BF9004
:10079000AF909F908F900895E95CE1CFCF92DF9268
:1007A000EF92FF92CF93DF936B017C016DE287E3C1
:1007B00093E00E94DF02EC0166277727CB016C19DA
:1007C0007D098E099F094AE00E948A038C0F9D1FB4
:1007D000DF91CF91FF90EF90DF90CF900895CF936E
:1007E000DF930E947D03EC0186E392E00E947D038B
:1007F0008C0F9D1FDF91CF91089561E084E00E94EE
:10080000630161E085E00E94630183E090E09093E2
:1008100013028093120289E392E00C94EF0361E0EB
:1008200084E00E94630160E085E00E94630182E051
:1008300090E0909313028093120281E592E00C9471
:10084000EF034F925F926F927F928F929F92AF923F
:10085000BF92CF92DF92EF92FF920F931F93CF93AD
:100860006B017C01742EAC019B010E94530C882308
:1008700099F08AE692E0CF911F910F91FF90EF904F
:10088000DF90CF90BF90AF909F908F907F906F90B0
:100890005F904F900C947D0346015701E894B7F8A0
:1008A0002FEF3FEF4FE75FE7C501B4010E94530C04
:1008B00081110DC02FEF3FEF4FE75FE7C501B40196
:1008C0000E94820A18161CF48EE692E0D4CF2FEF15
:1008D0003FEF4FE75FE4C701B6010E94E10B181636
:1008E0001CF482E792E0C7CF2FEF3FEF4FE75FECBA
:1008F000C701B6010E94820A87FDF3CF20E030E0F5
:10090000A901C701B6010E94820A10E000E087FF3A
:100910000AC06DE287E393E00E94DF028C01F7FAE0
:10092000F094F7F8F094C0E060E070E080E09FE3BE
:100930007C1641F020E030E040E251E40E94870A5A
:10094000CF5FF6CFA70196010E94160A2B013C014A
:100950000E94000B4B015C014AE00E948A037C016B
:10096000E00EF11ECC23C1F1C501B4010E942F0B92
:100970009B01AC01C301B2010E94150A4B015C014D
:100980006EE287E393E00E94DF02E80EF91EC15099
:1009900018F120E030E040E251E4C501B4010E94CA
:1009A000E60B2B013C010E94000B4B01B12CA12C4A
:1009B0004AE0C501B4010E948A03E80EF91EC50190
:1009C000B4010E942F0B9B01AC01C301B2010E9434
:1009D000150A4B015C01DBCFC701CF911F910F912D
:1009E000FF90EF90DF90CF90BF90AF909F908F904F
:1009F0007F906F905F904F9008958F929F92AF92EB
:100A0000BF92CF92DF92EF92FF928FB7F8948090CF
:100A1000D4039090D503A090D603B090D7038FBF96
:100A200060912C0370912D0380912E0390912F03E0
:100A30000E942F0B6B017C018091D8039091D90308
:100A4000A091DA03B091DB03A5019401281B390BB7
:100A50004A0B5B0BCA01B9010E942F0B20E030E06A
:100A60004AE754E40E94870A9B01AC01C701B60122
:100A70000E94870A20E030E040E951E40E94870AA2
:100A800020E030E040E752E40E94E60B6B017C017D
:100A900010922C0310922D0310922E0310922F030C
:100AA0008092D8039092D903A092DA03B092DB032C
:100AB00042E00E94210486E392E00E947D03C70188
:100AC000B6010E94F90ACB01FF90EF90DF90CF9022
:100AD000BF90AF909F908F900895CF92DF92EF924A
:100AE000FF92CF93DF93EC010E94FD04BC01990FAC
:100AF000880B990B0E94310B6B017C01CC0FDD1F21
:100B0000CC0FDD1FC05FDD4F688179818A819B81B9
:100B10002091120230911302215031092430310505
:100B200018F5220F331F220F331FF901EC5EFD4F22
:100B300020813181428153810E94870AA701960159
:100B40000E94E60B6B017C0142E00E94210486E3D7
:100B500092E00E947D03C701B601DF91CF91FF9023
:100B6000EF90DF90CF90089520E030E040E85FEB19
:100B7000E3CF8091120290911302823091050CF420
:100B800051C08330910581F184309105E1F10297E4
:100B9000F1F481E090E00E946D0520E030E84BEB3D
:100BA00055E40E94820A87FF1CC060E084E00E9436
:100BB000630160E085E00E94630181E090E0909332
:100BC00013028093120286E792E00E94EF03809165
:100BD0003003909131030196909331038093300359
:100BE00008958EE892E0F1CF82E090E00E946D05DA
:100BF00020E030E84BEB55E40E94820A87FFF1CFFA
:100C00000E940F04E4CF83E090E00E946D0520E095
:100C100030E84BEB55E40E94820A87FFE2CF0E9446
:100C2000FD03D5CF8EEA92E00E947D03609112020F
:100C300070911302072E000C880B990B97FF07C0C9
:100C40000E94CE0386E392E00E947D03C0CF4AE07B
:100C50000E948A03F7CF1F920F920FB60F921124B2
:100C60002F933F938F939F93AF93BF938091D40320
:100C70009091D503A091D603B091D703309136035C
:100C800023E0230F2D3758F50196A11DB11D2093A8
:100C900036038093D4039093D503A093D603B093E7
:100CA000D7038091320390913303A0913403B09124
:100CB00035030196A11DB11D809332039093330338
:100CC000A0933403B0933503BF91AF919F918F915F
:100CD0003F912F910F900FBE0F901F90189526E80F
:100CE000230F0296A11DB11DD2CF1F920F920FB6F6
:100CF0000F9211240BB60F922F933F934F935F9354
:100D00006F937F938F939F93AF93BF93EF93FF93D3
:100D1000E0910E02F0910F021995FF91EF91BF91B2
:100D2000AF919F918F917F916F915F914F913F9183
:100D30002F910F900BBE0F900FBE0F901F90189524
:100D40001F920F920FB60F9211240BB60F922F9392
:100D50003F934F935F936F937F938F939F93AF9343
:100D6000BF93EF93FF93E0910C02F0910D02199560
:100D7000FF91EF91BF91AF919F918F917F916F9173
:100D80005F914F913F912F910F900BBE0F900FBE2F
:100D90000F901F9018951F920F920FB60F9211246B
:100DA0000BB60F922F933F934F935F936F937F9365
:100DB0008F939F93AF93BF93EF93FF93E0910202C2
:100DC000F09103021995FF91EF91BF91AF919F911F
:100DD0008F917F916F915F914F913F912F910F90E4
:100DE0000BBE0F900FBE0F901F9018951F920F9281
:100DF0000FB60F9211240BB60F922F933F934F9380
:100E00005F936F937F938F939F93AF93BF93EF9372
:100E1000FF93E0910002F09101021995FF91EF918B
:100E2000BF91AF919F918F917F916F915F914F9102
:100E30003F912F910F900BBE0F900FBE0F901F9000
:100E400018951F920F920FB60F9211240BB60F92A6
:100E50002F933F934F935F936F937F938F939F93C2
:100E6000AF93BF93EF93FF93E0910A02F0910B02CF
:100E70001995FF91EF91BF91AF919F918F917F91C4
:100E80006F915F914F913F912F910F900BBE0F90FB
:100E90000FBE0F901F9018951F920F920FB60F92D2
:100EA00011240BB60F922F933F934F935F936F9341
:100EB0007F938F939F93AF93BF93EF93FF93E091B3
:100EC0000802F09109021995FF91EF91BF91AF913E
:100ED0009F918F917F916F915F914F913F912F9152
:100EE0000F900BBE0F900FBE0F901F9018951F9282
:100EF0000F920FB60F9211240BB60F922F933F93C0
:100F00004F935F936F937F938F939F93AF93BF9311
:100F1000EF93FF93E0910602F09107021995FF917C
:100F2000EF91BF91AF919F918F917F916F915F9161
:100F30004F913F912F910F900BBE0F900FBE0F90CE
:100F40001F9018951F920F920FB60F9211240BB697
:100F50000F922F933F934F935F936F937F938F9352
:100F60009F93AF93BF93EF93FF93E0910402F091AF
:100F700005021995FF91EF91BF91AF919F918F91CC
:100F80007F916F915F914F913F912F910F900BBE89
:100F90000F900FBE0F901F9018951F920F920FB6D3
:100FA0000F9211240BB60F922F933F934F935F93A1
:100FB0006F937F938F939F93AF93BF93EF93FF9321
:100FC00087E393E00E94BD02FF91EF91BF91AF9143
:100FD0009F918F917F916F915F914F913F912F9151
:100FE0000F900BBE0F900FBE0F901F9018951F9281
:100FF0000F920FB60F9211240BB60F922F938F936F
:101000009F93EF93FF93E0914703F0914803808112
:10101000E0914D03F0914E0382FD1DC090818091BF
:1010200050038F5F8F7320915103821741F0E0913D
:101030005003F0E0E95CFC4F958F80935003FF91E3
:10104000EF919F918F912F910F900BBE0F900FBE3C
:101050000F901F9018958081F2CFE7E3F3E01382A1
:10106000128288EE93E0A0E0B0E084839583A683AB
:10107000B78388E292E09183808385EC90E0958746
:10108000848784EC90E09787868780EC90E0918B52
:10109000808B81EC90E0938B828B82EC90E0958B3F
:1010A000848B86EC90E0978B868B118E128E138E3C
:1010B000148E2FB7F8948091D4039091D503A0910A
:1010C000D603B091D7032FBF8093D8039093D90351
:1010D000A093DA03B093DB030895789484B582601B
:1010E00084BD84B5816084BD85B5826085BD85B5CC
:1010F000816085BD80916E00816080936E0010924A
:1011000081008091810082608093810080918100C4
:101110008160809381008091800081608093800055
:101120008091B10084608093B1008091B0008160B3
:101130008093B000809191008260809391008091B3
:1011400091008160809391008091900081608093F4
:1011500090008091A10082608093A1008091A10005
:1011600081608093A1008091A00081608093A000A5
:101170008091210182608093210180912101816011
:1011800080932101809120018160809320018091D2
:101190007A00846080937A0080917A0082608093E4
:1011A0007A0080917A00816080937A0080917A0041
:1011B000806880937A001092C100E0914703F0911B
:1011C000480382E08083E0914303F091440310825E
:1011D000E0914503F091460380E1808310924F0334
:1011E000E0914B03F0914C0386E08083E09149034A
:1011F000F0914A03808180618083E0914903F091FE
:101200004A03808188608083E0914903F0914A031A
:10121000808180688083E0914903F0914A03808156
:101220008F7D808360E082E00E94EF0180E292E0A7
:10123000909301028093000280916A008360809302
:101240006A00EC9A60E083E00E94EF018AE292E09B
:10125000909303028093020280916A008C608093D5
:101260006A00ED9A60E082E10E94EF0184E392E07F
:1012700090930B0280930A02809169008F738064BF
:1012800080936900EB9A61E084E00E94EF0161E0E5
:1012900085E00E94EF0110E4C3E0D0E02FB7F8949E
:1012A0008091D4039091D503A091D603B091D70338
:1012B0002FBF4091D8035091D9036091DA03709108
:1012C000DB03841B950BA60BB70B81309C45A64214
:1012D000B54010F00E94FD0480917B00877F8093D1
:1012E0007B0010937C0080917A00806480937A0068
:1012F00080917A0086FDFCCF8091780090917900F2
:101300008D32914064F08091120290911302049703
:1013100011F40E94B905D0931102C093100280917C
:10132000300390913103181619060CF078C08091A3
:101330001202909113022091100230911102821733
:1013400093070CF053C08230910521F18330910551
:1013500081F1019771F482E090E00E946D0520E038
:1013600030E048E454E40E94E10B181674F40E9443
:101370000F048091300390913103019790933103D2
:10138000809330030E944C0389CF83ED92E00E944A
:10139000EF03EFCF83E090E00E946D0520E030E0A6
:1013A00048E454E40E94E10B18167CF70E94FD0308
:1013B000E0CF84E090E00E946D0520E030E048E45A
:1013C00054E40E94E10B181604F760E084E00E94E8
:1013D000630161E085E00E94630184E090E0909306
:1013E00013028093120280EF92E0D1CF89E093E064
:1013F0000E947D036091120270911302072E000C6F
:10140000880B990B97FF07C00E94CE0386E392E0FA
:101410000E947D03AECF4AE00E948A03F7CF892B5A
:1014200009F4B0CF0E94B905ADCF5058BB27AA2709
:101430000E942D0A0C94A70B0E94990B38F00E9471
:10144000A00B20F039F49F3F19F426F40C94960B6E
:101450000EF4E095E7FB0C94900BE92F0E94B80B7B
:1014600058F3BA17620773078407950720F079F4D9
:10147000A6F50C94DA0B0EF4E0950B2EBA2FA02DE6
:101480000B01B90190010C01CA01A0011124FF2731
:10149000591B99F0593F50F4503E68F11A16F0402C
:1014A000A22F232F342F4427585FF3CF469537952B
:1014B0002795A795F0405395C9F77EF41F16BA0BF0
:1014C000620B730B840BBAF09150A1F0FF0FBB1F9E
:1014D000661F771F881FC2F70EC0BA0F621F731FE7
:1014E000841F48F4879577956795B795F7959E3F44
:1014F00008F0B0CF9395880F08F09927EE0F9795D5
:10150000879508950E946C0B08F481E008950E946D
:101510009B0A0C94A70B0E94A00B58F00E94990BF9
:1015200040F029F45F3F29F00C94900B51110C947A
:10153000DB0B0C94960B0E94B80B68F39923B1F364
:10154000552391F3951B550BBB27AA2762177307E9
:10155000840738F09F5F5F4F220F331F441FAA1F7D
:10156000A9F335D00E2E3AF0E0E832D09150504039
:10157000E695001CCAF72BD0FE2F29D0660F771FE7
:10158000881FBB1F261737074807AB07B0E809F0CD
:10159000BB0B802DBF01FF2793585F4F3AF09E3F52
:1015A000510578F00C94900B0C94DB0B5F3FE4F347
:1015B000983ED4F3869577956795B795F7959F5F95
:1015C000C9F7880F911D9695879597F90895E1E0E1
:1015D000660F771F881FBB1F621773078407BA0740
:1015E00020F0621B730B840BBA0BEE1F88F7E0959B
:1015F00008950E94000B6894B1110C94DB0B0895C0
:101600000E94C00B88F09F5798F0B92F9927B751C7
:10161000B0F0E1F0660F771F881F991F1AF0BA9596
:10162000C9F714C0B13091F00E94DA0BB1E008950F
:101630000C94DA0B672F782F8827B85F39F0B93F01
:10164000CCF3869577956795B395D9F73EF4909549
:101650008095709561957F4F8F4F9F4F0895E894C7
:1016600009C097FB3EF490958095709561957F4FEA
:101670008F4F9F4F9923A9F0F92F96E9BB27939598
:10168000F695879577956795B795F111F8CFFAF4A8
:10169000BB0F11F460FF1BC06F5F7F4F8F4F9F4FD9
:1016A00016C0882311F096E911C0772321F09EE837
:1016B000872F762F05C0662371F096E8862F70E09D
:1016C00060E02AF09A95660F771F881FDAF7880F77
:1016D0009695879597F90895990F0008550FAA0BCD
:1016E000E0E8FEEF16161706E807F907C0F0121635
:1016F0001306E407F50798F0621B730B840B950B38
:1017000039F40A2661F0232B242B252B21F408958C
:101710000A2609F4A140A6958FEF811D811D089529
:1017200097F99F6780E870E060E008959FEF80EC94
:10173000089500240A941616170618060906089537
:1017400000240A9412161306140605060895092E9D
:101750000394000C11F4882352F0BB0F40F4BF2B0C
:1017600011F460FF04C06F5F7F4F8F4F9F4F08954C
:1017700057FD9058440F551F59F05F3F71F0479542
:10178000880F97FB991F61F09F3F79F08795089527
:10179000121613061406551FF2CF4695F1DF08C046
:1017A000161617061806991FF1CF86957105610563
:1017B00008940895E894BB2766277727CB0197F90B
:1017C00008950E946C0B08F48FEF08950E94F90BA6
:1017D0000C94A70B0E94990B38F00E94A00B20F0EC
:1017E000952311F00C94900B0C94960B11240C94EF
:1017F000DB0B0E94B80B70F3959FC1F3950F50E07F
:10180000551F629FF001729FBB27F00DB11D639FB2
:10181000AA27F00DB11DAA1F649F6627B00DA11D58
:10182000661F829F2227B00DA11D621F739FB00DFE
:10183000A11D621F839FA00D611D221F749F33276E
:10184000A00D611D231F849F600D211D822F762F07
:101850006A2F11249F5750409AF0F1F088234AF0E4
:10186000EE0FFF1FBB1F661F771F881F9150504050
:10187000A9F79E3F510580F00C94900B0C94DB0B64
:101880005F3FE4F3983ED4F3869577956795B795D7
:10189000F795E7959F5FC1F7FE2B880F911D9695F1
:1018A000879597F908950E946C0B880B990B089502
:1018B000A1E21A2EAA1BBB1BFD010DC0AA1FBB1F54
:1018C000EE1FFF1FA217B307E407F50720F0A21BC6
:1018D000B30BE40BF50B661F771F881F991F1A9433
:1018E00069F760957095809590959B01AC01BD015D
:1018F000CF010895EE0FFF1F881F8BBF0790F69151
:08190000E02D1994F894FFCFCB
:10190800480248024802480248024802480248027F
:1019180004000100AAF13A4039B4C83F0000803FF2
:10192800E17A343F00000000DF02490276022C030E
:10193800A702850299020D0A0053686966746564F6
:1019480020696E746F2074686972642067656172BB
:10195800005368696674656420696E746F207365E6
:10196800636F6E642067656172006E616E00696EF8
:1019780066006F7666005368696674656420696EF0
:10198800746F206669727374206765617200456EB2
:1019980067696E652073706565642068696768208B
:1019A800666F7220646F776E736869667400646F1F
:1019B800776E20736869667420696E76616C6964F5
:1019C8003A2063757272656E74206765617220696A
:1019D800732000456E67696E6520737065656420C5
:1019E8006C6F7720666F7220757073686966740013
:1019F8005368696674656420696E746F20666F75D4
:101A08007274682067656172007570207368696612
:101A18007420696E76616C69643A206375727265C8
:0C1A28006E7420676561722069732000F5
:00000001FF
