:100000000C9430010C94A2070C9477070C944C07C5
:100010000C9421070C94F6060C94CB060C94A006C5
:100020000C9475060C9461010C9461010C946101AF
:100030000C9461010C9461010C9461010C946101B8
:100040000C9461010C9461010C9461010C946101A8
:100050000C9461010C9461010C9461010C942B06C9
:100060000C9461010C94F7070C94CD070C9461017A
:100070000C9461010C9461010C9461010C94610178
:100080000C9461010C9461010C9461010C94610168
:100090000C9461010C9461010C9461010C94610158
:1000A0000C9461010C9461010C9461010C94610148
:1000B0000C9461010C9461010C9461010C94610138
:1000C0000C9461010C9461010C9461010C94610128
:1000D0000C9461010C9461010C9461010C94610118
:1000E0000C9461010C94DF020C942D080C94A7026F
:1000F0000C94BF010C94DB010C94C3010C94B2016D
:100100000C9434020C942A020C94DF010C94D70155
:100110000C942C030C94AA010C94AE010C94B9011C
:100120000C9449020C94B6010C94CD010C94C901B5
:100130000C9493010C94E9010C9498010C94E50142
:100140000C9476020C9420020C9485020C94D1013C
:100150000C9448020C94990200002100240027000E
:100160002A002D00300033000101000004010701C6
:100170000A0100002200250028002B002E0031007B
:10018000340002010000050108010B010505050509
:10019000070508080808020202020A0A08080404FF
:1001A000040401010101010101010303030303032D
:1001B0000303040707070C0C0C0C0C0C0C0C0202BC
:1001C000020206060606060606060B0B0B0B0B0BB9
:1001D0000B0B010210202008081020401020408046
:1001E00002010201080402010102040810204080FB
:1001F0008040201008040201800402018040201089
:1002000008040201080402010102040810204080D1
:10021000010204081020408000000A0B02090C0DA6
:100220000E080703040100000000000000000000A9
:1002300000000000000000000000000000000000BE
:10024000000000001211100000000000000000007B
:1002500000000000000000000000000000002D0869
:1002600011241FBECFEFD1E2DEBFCDBF00E00CBF37
:1002700013E0A0E0B2E0E4E2F9E100E00BBF02C06D
:1002800007900D92A434B107D9F723E0A4E4B3E0BA
:1002900001C01D92A43FB207E1F711E0C0E3D1E035
:1002A00000E006C021970109802FFE010E94880C02
:1002B000CF32D10780E00807A9F70E946D080C949F
:1002C000900C0C940000282F30E0F901E85EFD4FFF
:1002D0009491F901EE52FE4F449124573E4FF9019B
:1002E0002491222309F435C0992311F191509231C0
:1002F000F8F4E92FF0E08827EF57FE4F8F4F0C946A
:10030000880CB201B6019301AA01AE019801B901AE
:10031000BF01C301C901CD01D101D701DB019801A2
:10032000DF01E501E901809180008F7780938000F3
:10033000E22FF0E0EE0FFF1FEE58FE4FA591B491B3
:100340008FB7F894EC91611148C040954E234C93BF
:100350008FBF0895809180008F7DE8CF80918000CD
:10036000877FE4CF84B58F7784BDE2CF84B58F7D5E
:10037000FBCF8091B0008F778093B000D9CF809170
:10038000B0008F7DF9CF809190008F77809390009F
:10039000CFCF809190008F7DF9CF80919000877FA3
:1003A000F5CF8091A0008F778093A000C1CF80917E
:1003B000A0008F7DF9CF8091A000877FF5CF80913D
:1003C00020018F7780932001B3CF809120018F7D12
:1003D000F9CF80912001877FF5CF4E2BB8CFCF93F7
:1003E000DF9390E0FC01EE52FE4F249184579E4F24
:1003F000FC0184918823D1F090E0880F991FFC01C3
:10040000E85AFE4FA591B491FC01EE58FE4FC591FC
:10041000D49161110EC09FB7F8948C91E22FE095B2
:100420008E238C932881E223E8839FBFDF91CF91B5
:1004300008958FB7F894EC91E22BEC938FBFF6CF31
:1004400080914803909149030196909349038093CA
:100450004803089580914803909149030197909330
:100460004903809348030895809144039091450384
:10047000A0914603B09147030196A11DB11D809341
:10048000440390934503A0934603B0934703089514
:100490000895AF92BF92CF92DF92EF92FF920F93A7
:1004A0001F93CF93DF936C017B018B01040F151F0A
:1004B000EB015E01AE18BF08C017D10759F0699172
:1004C000D601ED91FC910190F081E02DC6011995C6
:1004D000892B79F7C501DF91CF911F910F91FF9083
:1004E000EF90DF90CF90BF90AF900895FC01538DB7
:1004F000448D252F30E0842F90E0821B930B5417FE
:1005000010F0CF96089501970895FC01918D828D8A
:10051000981761F0A28DAE0FBF2FB11D5D968C9123
:10052000928D9F5F9F73928F90E008958FEF9FEF62
:100530000895FC01918D828D981731F0828DE80F1E
:10054000F11D858D90E008958FEF9FEF0895FC01D8
:10055000918D228D892F90E0805C9F4F821B9109A5
:100560008F73992708958FE493E00E94A70221E0FA
:10057000892B09F420E0822F0895FC01A48DA80F97
:10058000B92FB11DA35ABF4F2C91848D90E00196D5
:100590008F739927848FA689B7892C93A089B189F5
:1005A0008C91837080648C93938D848D981306C096
:1005B0000288F389E02D80818F7D80830895EF92FA
:1005C000FF920F931F93CF93DF93EC0181E0888F0D
:1005D0009B8D8C8D98131AC0E889F989808185FFDD
:1005E00015C09FB7F894EE89FF896083E889F9897F
:1005F00080818370806480839FBF81E090E0DF9181
:10060000CF911F910F91FF90EF900895F62E0B8DD3
:1006100010E00F5F1F4F0F731127E02E8C8D8E118E
:100620000CC00FB607FCFACFE889F989808185FFF5
:10063000F5CFCE010E94BD02F1CFEB8DEC0FFD2F67
:10064000F11DE35AFF4FF0829FB7F8940B8FEA89B0
:10065000FB8980818062CFCFCF93DF93EC01888DBF
:100660008823B9F0AA89BB89E889F9898C9185FD2D
:1006700003C0808186FD0DC00FB607FCF7CF8C91BB
:1006800085FFF2CF808185FFEDCFCE010E94BD02B4
:10069000E9CFDF91CF91089580E090E0892B29F098
:1006A0000E94B30281110E94000080E090E0892B3B
:1006B00049F080E090E0892B29F00E940000811130
:1006C0000E94000080E090E0892B49F080E090E0FB
:1006D000892B29F00E94000081110E94000080E017
:1006E00090E0892B49F080E090E0892B29F00E946E
:1006F000000081110C9400000895FC01019000207D
:10070000E9F73197AF01481B590BBC018FE493E027
:100710000C9449028F929F92AF92BF920F931F93B6
:10072000CF93DF93CDB7DEB7A1970FB6F894DEBFB6
:100730000FBECDBF19A2423008F44AE08E010F5D12
:100740001F4F842E912CB12CA12CA50194010E9445
:10075000660CE62FB901CA01EA30F4F4E05DD80175
:10076000EE938D01232B242B252B79F790E080E04D
:10077000109719F0CD010E947D03A1960FB6F89451
:10078000DEBF0FBECDBFDF91CF911F910F91BF9004
:10079000AF909F908F900895E95CE1CFCF92DF9268
:1007A000EF92FF92CF93DF936B017C016DE28FE4B8
:1007B00093E00E94DF02EC0166277727CB016C19DA
:1007C0007D098E099F094AE00E948A038C0F9D1FB4
:1007D000DF91CF91FF90EF90DF90CF900895CF936E
:1007E000DF930E947D03EC0186E392E00E947D038B
:1007F0008C0F9D1FDF91CF91089561E084E00E94EE
:10080000630161E085E00E94630183E090E09093E2
:1008100011028093100289E392E00C94EF0361E0EF
:1008200084E00E94630160E085E00E94630182E051
:1008300090E0909311028093100281E592E00C9475
:10084000EF034F925F926F927F928F929F92AF923F
:10085000BF92CF92DF92EF92FF920F931F93CF93AD
:100860006B017C01742EAC019B010E94610C8823FA
:1008700099F08AE692E0CF911F910F91FF90EF904F
:10088000DF90CF90BF90AF909F908F907F906F90B0
:100890005F904F900C947D0346015701E894B7F8A0
:1008A0002FEF3FEF4FE75FE7C501B4010E94610CF6
:1008B00081110DC02FEF3FEF4FE75FE7C501B40196
:1008C0000E94900A18161CF48EE692E0D4CF2FEF07
:1008D0003FEF4FE75FE4C701B6010E94EF0B181628
:1008E0001CF482E792E0C7CF2FEF3FEF4FE75FECBA
:1008F000C701B6010E94900A87FDF3CF20E030E0E7
:10090000A901C701B6010E94900A10E000E087FF2C
:100910000AC06DE28FE493E00E94DF028C01F7FAD7
:10092000F094F7F8F094C0E060E070E080E09FE3BE
:100930007C1641F020E030E040E251E40E94950A4C
:10094000CF5FF6CFA70196010E94240A2B013C013C
:100950000E940E0B4B015C014AE00E948A037C015D
:10096000E00EF11ECC23C1F1C501B4010E943D0B84
:100970009B01AC01C301B2010E94230A4B015C013F
:100980006EE28FE493E00E94DF02E80EF91EC15090
:1009900018F120E030E040E251E4C501B4010E94CA
:1009A000F40B2B013C010E940E0B4B01B12CA12C2E
:1009B0004AE0C501B4010E948A03E80EF91EC50190
:1009C000B4010E943D0B9B01AC01C301B2010E9426
:1009D000230A4B015C01DBCFC701CF911F910F911F
:1009E000FF90EF90DF90CF90BF90AF909F908F904F
:1009F0007F906F905F904F9008958F929F92AF92EB
:100A0000BF92CF92DF92EF92FF928FB7F8948090CF
:100A1000EC039090ED03A090EE03B090EF038FBF36
:100A20006091440370914503809146039091470380
:100A30000E943D0B6B017C018091F0039091F103CA
:100A4000A091F203B091F303A5019401281B390B87
:100A50004A0B5B0BCA01B9010E943D0B20E030E05C
:100A60004AE754E40E94950A9B01AC01C701B60114
:100A70000E94950A20E030E040E951E40E94950A86
:100A800020E030E040E752E40E94F40B6B017C016F
:100A900010924403109245031092460310924703AC
:100AA0008092F0039092F103A092F203B092F303CC
:100AB00042E00E94210486E392E00E947D03C70188
:100AC000B6010E94070BCB01FF90EF90DF90CF9013
:100AD000BF90AF909F908F900895CF92DF92EF924A
:100AE000FF92CF93DF93EC010E94FD04BC01990FAC
:100AF000880B990B0E943F0B6B017C01CC0FDD1F13
:100B0000CC0FDD1FC05FDD4F688179818A819B81B9
:100B10002091100230911102215031092430310509
:100B200018F5220F331F220F331FF901EC5EFD4F22
:100B300020813181428153810E94950AA70196014B
:100B40000E94F40B6B017C0142E00E94210486E3C9
:100B500092E00E947D03C701B601DF91CF91FF9023
:100B6000EF90DF90CF90089520E030E040E85FEB19
:100B7000E3CF8091100290911102823091050CF424
:100B800051C08330910581F184309105E1F10297E4
:100B9000F1F481E090E00E946D0520E030E84BEB3D
:100BA00055E40E94900A87FF1CC060E084E00E9428
:100BB000630160E085E00E94630181E090E0909332
:100BC00011028093100286E792E00E94EF03809169
:100BD00048039091490301969093490380934803F9
:100BE00008958EE892E0F1CF82E090E00E946D05DA
:100BF00020E030E84BEB55E40E94900A87FFF1CFEC
:100C00000E940F04E4CF83E090E00E946D0520E095
:100C100030E84BEB55E40E94900A87FFE2CF0E9438
:100C2000FD03D5CF8EEA92E00E947D036091100211
:100C300070911102072E000C880B990B97FF07C0CB
:100C40000E94CE0386E392E00E947D03C0CF4AE07B
:100C50000E948A03F7CF1F920F920FB60F921124B2
:100C60002F933F938F939F93AF93BF938091EC0308
:100C70009091ED03A091EE03B091EF0330914E03FC
:100C800023E0230F2D3758F50196A11DB11D2093A8
:100C90004E038093EC039093ED03A093EE03B09387
:100CA000EF0380914A0390914B03A0914C03B091C4
:100CB0004D030196A11DB11D80934A0390934B03F0
:100CC000A0934C03B0934D03BF91AF919F918F912F
:100CD0003F912F910F900FBE0F901F90189526E80F
:100CE000230F0296A11DB11DD2CF1F920F920FB6F6
:100CF0000F9211240BB60F922F933F934F935F9354
:100D00006F937F938F939F93AF93BF93EF93FF93D3
:100D1000E0910E02F0910F021995FF91EF91BF91B2
:100D2000AF919F918F917F916F915F914F913F9183
:100D30002F910F900BBE0F900FBE0F901F90189524
:100D40001F920F920FB60F9211240BB60F922F9392
:100D50003F934F935F936F937F938F939F93AF9343
:100D6000BF93EF93FF93E0910C02F0910D02199560
:100D7000FF91EF91BF91AF919F918F917F916F9173
:100D80005F914F913F912F910F900BBE0F900FBE2F
:100D90000F901F9018951F920F920FB60F9211246B
:100DA0000BB60F922F933F934F935F936F937F9365
:100DB0008F939F93AF93BF93EF93FF93E0910202C2
:100DC000F09103021995FF91EF91BF91AF919F911F
:100DD0008F917F916F915F914F913F912F910F90E4
:100DE0000BBE0F900FBE0F901F9018951F920F9281
:100DF0000FB60F9211240BB60F922F933F934F9380
:100E00005F936F937F938F939F93AF93BF93EF9372
:100E1000FF93E0910002F09101021995FF91EF918B
:100E2000BF91AF919F918F917F916F915F914F9102
:100E30003F912F910F900BBE0F900FBE0F901F9000
:100E400018951F920F920FB60F9211240BB60F92A6
:100E50002F933F934F935F936F937F938F939F93C2
:100E6000AF93BF93EF93FF93E0910A02F0910B02CF
:100E70001995FF91EF91BF91AF919F918F917F91C4
:100E80006F915F914F913F912F910F900BBE0F90FB
:100E90000FBE0F901F9018951F920F920FB60F92D2
:100EA00011240BB60F922F933F934F935F936F9341
:100EB0007F938F939F93AF93BF93EF93FF93E091B3
:100EC0000802F09109021995FF91EF91BF91AF913E
:100ED0009F918F917F916F915F914F913F912F9152
:100EE0000F900BBE0F900FBE0F901F9018951F9282
:100EF0000F920FB60F9211240BB60F922F933F93C0
:100F00004F935F936F937F938F939F93AF93BF9311
:100F1000EF93FF93E0910602F09107021995FF917C
:100F2000EF91BF91AF919F918F917F916F915F9161
:100F30004F913F912F910F900BBE0F900FBE0F90CE
:100F40001F9018951F920F920FB60F9211240BB697
:100F50000F922F933F934F935F936F937F938F9352
:100F60009F93AF93BF93EF93FF93E0910402F091AF
:100F700005021995FF91EF91BF91AF919F918F91CC
:100F80007F916F915F914F913F912F910F900BBE89
:100F90000F900FBE0F901F9018951F920F920FB6D3
:100FA0000F9211240BB60F922F933F934F935F93A1
:100FB0006F937F938F939F93AF93BF93EF93FF9321
:100FC0008FE493E00E94BD02FF91EF91BF91AF913A
:100FD0009F918F917F916F915F914F913F912F9151
:100FE0000F900BBE0F900FBE0F901F9018951F9281
:100FF0000F920FB60F9211240BB60F922F938F936F
:101000009F93EF93FF93E0915F03F09160038081E2
:10101000E0916503F091660382FD1DC0908180918F
:1010200068038F5F8F7320916903821741F0E0910D
:101030006803F0E0E15BFC4F958F80936803FF91BC
:10104000EF919F918F912F910F900BBE0F900FBE3C
:101050000F901F9018958081F2CFEFE4F3E0138298
:10106000128288EE93E0A0E0B0E084839583A683AB
:10107000B78388E292E09183808385EC90E0958746
:10108000848784EC90E09787868780EC90E0918B52
:10109000808B81EC90E0938B828B82EC90E0958B3F
:1010A000848B86EC90E0978B868B118E128E138E3C
:1010B000148E2FB7F8948091EC039091ED03A091DA
:1010C000EE03B091EF032FBF8093F0039093F103F1
:1010D000A093F203B093F3030895789484B58260EB
:1010E00084BD84B5816084BD85B5826085BD85B5CC
:1010F000816085BD80916E00816080936E0010924A
:1011000081008091810082608093810080918100C4
:101110008160809381008091800081608093800055
:101120008091B10084608093B1008091B0008160B3
:101130008093B000809191008260809391008091B3
:1011400091008160809391008091900081608093F4
:1011500090008091A10082608093A1008091A10005
:1011600081608093A1008091A00081608093A000A5
:101170008091210182608093210180912101816011
:1011800080932101809120018160809320018091D2
:101190007A00846080937A0080917A0082608093E4
:1011A0007A0080917A00816080937A0080917A0041
:1011B000806880937A001092C100E0915F03F09103
:1011C000600382E08083E0915B03F0915C03108216
:1011D000E0915D03F0915E0380E1808310926703EC
:1011E000E0916303F091640386E08083E091610302
:1011F000F0916203808180618083E0916103F091CE
:101200006203808188608083E0916103F0916203D2
:10121000808180688083E0916103F0916203808126
:101220008F7D808360E082E00E94EF0180E292E0A7
:10123000909301028093000280916A008360809302
:101240006A00EC9A60E083E00E94EF018AE292E09B
:10125000909303028093020280916A008C608093D5
:101260006A00ED9A60E082E10E94EF0184E392E07F
:1012700090930B0280930A02809169008F738064BF
:1012800080936900EB9A61E084E00E94EF0161E0E5
:1012900085E00E94EF0180E4F82EC4E0D0E003E096
:1012A00010E02FB7F8948091EC039091ED03A0919A
:1012B000EE03B091EF032FBF4091F0035091F10383
:1012C0006091F2037091F303841B950BA60BB70B8F
:1012D00081309C45A642B54010F00E94FD048091EB
:1012E0007B00877F80937B00F0927C0080917A0066
:1012F000806480937A0080917A0086FDFCCF809193
:101300007800909179008D3291400CF442C0809128
:10131000100290911102049711F40E94B9051093E4
:10132000130200931202809148039091490318160A
:1013300019060CF082C08091100290911102209148
:10134000120230911302821793070CF056C08230BC
:10135000910549F183309105A9F1019771F482E07B
:1013600090E00E946D0520E030E048E454E40E94E3
:10137000EF0B18169CF40E940F0480914803909183
:101380004903019790934903809348030E944C03BB
:1013900088CFD0931302C0931202C5CF83ED92E0A1
:1013A0000E94EF03EACF83E090E00E946D0520E009
:1013B00030E048E454E40E94EF0B18167CF70E94DA
:1013C000FD03DBCF84E090E00E946D0520E030E07B
:1013D00048E454E40E94EF0B181604F760E084E040
:1013E0000E94630161E085E00E946301D0931102D5
:1013F000C093100280EF92E0D3CF2330310521F467
:1014000089E093E00E94EF0380E293E00E947D0375
:101410006091100270911102072E000C880B990B3D
:1014200097FF07C00E94CE0386E392E00E947D03EF
:10143000A4CF4AE00E948A03F7CF892B09F4A6CFF4
:101440000E94B905A3CF5058BB27AA270E943B0A88
:101450000C94B50B0E94A70B38F00E94AE0B20F045
:1014600039F49F3F19F426F40C94A40B0EF4E09584
:10147000E7FB0C949E0BE92F0E94C60B58F3BA179A
:10148000620773078407950720F079F4A6F50C949A
:10149000E80B0EF4E0950B2EBA2FA02D0B01B9012D
:1014A00090010C01CA01A0011124FF27591B99F0DA
:1014B000593F50F4503E68F11A16F040A22F232FE6
:1014C000342F4427585FF3CF469537952795A79536
:1014D000F0405395C9F77EF41F16BA0B620B730BDD
:1014E000840BBAF09150A1F0FF0FBB1F661F771F4E
:1014F000881FC2F70EC0BA0F621F731F841F48F403
:10150000879577956795B795F7959E3F08F0B0CF8B
:101510009395880F08F09927EE0F97958795089572
:101520000E947A0B08F481E008950E94A90A0C94A5
:10153000B50B0E94AE0B58F00E94A70B40F029F4A7
:101540005F3F29F00C949E0B51110C94E90B0C9405
:10155000A40B0E94C60B68F39923B1F3552391F3B2
:10156000951B550BBB27AA2762177307840738F012
:101570009F5F5F4F220F331F441FAA1FA9F335D06F
:101580000E2E3AF0E0E832D091505040E695001C23
:10159000CAF72BD0FE2F29D0660F771F881FBB1FDD
:1015A000261737074807AB07B0E809F0BB0B802DBB
:1015B000BF01FF2793585F4F3AF09E3F510578F0E7
:1015C0000C949E0B0C94E90B5F3FE4F3983ED4F32C
:1015D000869577956795B795F7959F5FC9F7880FBB
:1015E000911D9695879597F90895E1E0660F771F0D
:1015F000881FBB1F621773078407BA0720F0621B9E
:10160000730B840BBA0BEE1F88F7E09508950E94C8
:101610000E0B6894B1110C94E90B08950E94CE0B47
:1016200088F09F5798F0B92F9927B751B0F0E1F0A3
:10163000660F771F881F991F1AF0BA95C9F714C053
:10164000B13091F00E94E80BB1E008950C94E80BE2
:10165000672F782F8827B85F39F0B93FCCF386958C
:1016600077956795B395D9F73EF4909580957095E9
:1016700061957F4F8F4F9F4F0895E89409C097FB66
:101680003EF490958095709561957F4F8F4F9F4F59
:101690009923A9F0F92F96E9BB279395F69587959D
:1016A00077956795B795F111F8CFFAF4BB0F11F460
:1016B00060FF1BC06F5F7F4F8F4F9F4F16C0882307
:1016C00011F096E911C0772321F09EE8872F762F3D
:1016D00005C0662371F096E8862F70E060E02AF07E
:1016E0009A95660F771F881FDAF7880F969587956A
:1016F00097F90895990F0008550FAA0BE0E8FEEF3F
:1017000016161706E807F907C0F012161306E407C5
:10171000F50798F0621B730B840B950B39F40A26BE
:1017200061F0232B242B252B21F408950A2609F49C
:10173000A140A6958FEF811D811D089597F99F67A0
:1017400080E870E060E008959FEF80EC0895002449
:101750000A941616170618060906089500240A9416
:1017600012161306140605060895092E0394000C9C
:1017700011F4882352F0BB0F40F4BF2B11F460FF2B
:1017800004C06F5F7F4F8F4F9F4F089557FD905854
:10179000440F551F59F05F3F71F04795880F97FB35
:1017A000991F61F09F3F79F08795089512161306EF
:1017B0001406551FF2CF4695F1DF08C0161617061E
:1017C0001806991FF1CF8695710561050894089553
:1017D000E894BB2766277727CB0197F908950E94E5
:1017E0007A0B08F48FEF08950E94070C0C94B50B48
:1017F0000E94A70B38F00E94AE0B20F0952311F049
:101800000C949E0B0C94A40B11240C94E90B0E94D5
:10181000C60B70F3959FC1F3950F50E0551F629F63
:10182000F001729FBB27F00DB11D639FAA27F00D39
:10183000B11DAA1F649F6627B00DA11D661F829F60
:101840002227B00DA11D621F739FB00DA11D621F45
:10185000839FA00D611D221F749F3327A00D611D62
:10186000231F849F600D211D822F762F6A2F112444
:101870009F5750409AF0F1F088234AF0EE0FFF1F77
:10188000BB1F661F771F881F91505040A9F79E3FCE
:10189000510580F00C949E0B0C94E90B5F3FE4F330
:1018A000983ED4F3869577956795B795F795E79524
:1018B0009F5FC1F7FE2B880F911D9695879597F92D
:1018C00008950E947A0B880B990B0895A1E21A2EB5
:1018D000AA1BBB1BFD010DC0AA1FBB1FEE1FFF1FD4
:1018E000A217B307E407F50720F0A21BB30BE40B24
:1018F000F50B661F771F881F991F1A9469F760956B
:101900007095809590959B01AC01BD01CF01089524
:10191000EE0FFF1F881F8BBF0790F691E02D1994E3
:04192000F894FFCF69
:101924004802480248024802480248024802480263
:1019340001000400AAF13A4039B4C83F0000803FD6
:10194400E17A343F00000000DF02490276022C03F2
:10195400A702850299020D0A0053686966746564DA
:1019640020696E746F20746869726420676561729F
:10197400005368696674656420696E746F207365CA
:10198400636F6E642067656172006E616E00696EDC
:1019940066006F7666005368696674656420696ED4
:1019A400746F206669727374206765617200456E96
:1019B40067696E652073706565642068696768206F
:1019C400666F7220646F776E736869667400646F03
:1019D400776E20736869667420696E76616C6964D9
:1019E4003A2063757272656E74206765617220694E
:1019F400732000456E67696E6520737065656420A9
:101A04006C6F7720666F72207570736869667400F6
:101A14005368696674656420696E746F20666F75B7
:101A2400727468206765617200466F75727468200D
:101A340067656172206C6F636B6564206F757400F9
:101A4400757020736869667420696E76616C696468
:101A54003A2063757272656E7420676561722069DD
:041A640073200000EB
:00000001FF
