:100000000C9430010C94D3060C94A8060C947D0635
:100010000C9452060C9427060C94FC050C94D10504
:100020000C94A6050C9461010C9461010C9461017F
:100030000C9461010C9461010C9461010C946101B8
:100040000C9461010C9461010C9461010C946101A8
:100050000C9461010C9461010C9461010C945C0599
:100060000C9461010C9428070C94FE060C94610119
:100070000C9461010C9461010C9461010C94610178
:100080000C9461010C9461010C9461010C94610168
:100090000C9461010C9461010C9461010C94610158
:1000A0000C9461010C9461010C9461010C94610148
:1000B0000C9461010C9461010C9461010C94610138
:1000C0000C9461010C9461010C9461010C94610128
:1000D0000C9461010C9461010C9461010C94610118
:1000E0000C9461010C9464020C94A0020C94CD0158
:1000F0000C94FA020C944F020C94B9010C949102E6
:100100000C94AE010C94AA010C9459020C94470370
:100110000C9498010C94B6010C94BF010C94C90185
:100120000C945E070C94C3010C94DF010C949301B2
:100130000C94C2020C9445020C94B4020C94630219
:100140000C94D7010C94E9010C94D1010C94B201E8
:100150000C94E5010C94DB01000021002400270031
:100160002A002D00300033000101000004010701C6
:100170000A0100002200250028002B002E0031007B
:10018000340002010000050108010B010505050509
:10019000070508080808020202020A0A08080404FF
:1001A000040401010101010101010303030303032D
:1001B0000303040707070C0C0C0C0C0C0C0C0202BC
:1001C000020206060606060606060B0B0B0B0B0BB9
:1001D0000B0B010210202008081020401020408046
:1001E00002010201080402010102040810204080FB
:1001F0008040201008040201800402018040201089
:1002000008040201080402010102040810204080D1
:10021000010204081020408000000A0B02090C0DA6
:100220000E080703040100000000000000000000A9
:1002300000000000000000000000000000000000BE
:10024000000000001211100000000000000000007B
:1002500000000000000000000000000000005E0739
:1002600011241FBECFEFD1E2DEBFCDBF00E00CBF37
:1002700013E0A0E0B2E0E4ECF8E100E00BBF02C064
:1002800007900D92A433B107D9F723E0A4E3B3E0BC
:1002900001C01D92A23EB207E1F711E0C0E3D1E038
:1002A00000E006C021970109802FFE010E94580C32
:1002B000CF32D10780E00807A9F70E949E070C946F
:1002C000600C0C940000282F30E0F901E85EFD4F2F
:1002D0009491F901EE52FE4F449124573E4FF9019B
:1002E0002491222309F435C0992311F191509231C0
:1002F000F8F4E92FF0E08827EF57FE4F8F4F0C946A
:10030000580CB201B6019301AA01AE019801B901DE
:10031000BF01C301C901CD01D101D701DB019801A2
:10032000DF01E501E901809180008F7780938000F3
:10033000E22FF0E0EE0FFF1FEE58FE4FA591B491B3
:100340008FB7F894EC91611148C040954E234C93BF
:100350008FBF0895809180008F7DE8CF80918000CD
:10036000877FE4CF84B58F7784BDE2CF84B58F7D5E
:10037000FBCF8091B0008F778093B000D9CF809170
:10038000B0008F7DF9CF809190008F77809390009F
:10039000CFCF809190008F7DF9CF80919000877FA3
:1003A000F5CF8091A0008F778093A000C1CF80917E
:1003B000A0008F7DF9CF8091A000877FF5CF80913D
:1003C00020018F7780932001B3CF809120018F7D12
:1003D000F9CF80912001877FF5CF4E2BB8CFCF93F7
:1003E000DF9390E0FC01EE52FE4F249184579E4F24
:1003F000FC0184918823D1F090E0880F991FFC01C3
:10040000E85AFE4FA591B491FC01EE58FE4FC591FC
:10041000D49161110EC09FB7F8948C91E22FE095B2
:100420008E238C932881E223E8839FBFDF91CF91B5
:1004300008958FB7F894EC91E22BEC938FBFF6CF31
:100440003FB7F8948091390390913A03A0913B0310
:10045000B0913C0326B5A89B05C02F3F19F001962B
:10046000A11DB11D3FBFBA2FA92F982F8827BC010E
:10047000CD01620F711D811D911D42E0660F771F36
:10048000881F991F4A95D1F708958091360390915E
:100490003703019690933703809336030895809134
:1004A0003603909137030197909337038093360377
:1004B000089580913403909135030196909335030C
:1004C0008093340308950895AF92BF92CF92DF9244
:1004D000EF92FF920F931F93CF93DF936C017B01F9
:1004E0008B01040F151FEB015E01AE18BF08C0178A
:1004F000D10759F06991D601ED91FC910190F081FD
:10050000E02DC6011995892B79F7C501DF91CF91AF
:100510001F910F91FF90EF90DF90CF90BF90AF9021
:100520000895FC01538D448D252F30E0842F90E0F9
:10053000821B930B541710F0CF96089501970895DE
:10054000FC01918D828D981761F0A28DAE0FBF2FA7
:10055000B11D5D968C91928D9F5F9F73928F90E0FD
:1005600008958FEF9FEF0895FC01918D828D98176C
:1005700031F0828DE80FF11D858D90E008958FEFA9
:100580009FEF0895FC01918D228D892F90E0805C72
:100590009F4F821B91098F73992708958DE393E0F4
:1005A0000E94C20221E0892B09F420E0822F0895E5
:1005B000FC01A48DA80FB92FB11DA35ABF4F2C91D8
:1005C000848D90E001968F739927848FA689B789CF
:1005D0002C93A089B1898C91837080648C93938DC6
:1005E000848D981306C00288F389E02D80818F7D69
:1005F00080830895EF92FF920F931F93CF93DF9321
:10060000EC0181E0888F9B8D8C8D98131AC0E8894E
:10061000F989808185FF15C09FB7F894EE89FF891D
:100620006083E889F98980818370806480839FBFBB
:1006300081E090E0DF91CF911F910F91FF90EF90BB
:100640000895F62E0B8D10E00F5F1F4F0F731127CB
:10065000E02E8C8D8E110CC00FB607FCFACFE88906
:10066000F989808185FFF5CFCE010E94D802F1CFB4
:10067000EB8DEC0FFD2FF11DE35AFF4FF0829FB77A
:10068000F8940B8FEA89FB8980818062CFCFCF936A
:10069000DF93EC01888D8823B9F0AA89BB89E889AA
:1006A000F9898C9185FD03C0808186FD0DC00FB650
:1006B00007FCF7CF8C9185FFF2CF808185FFEDCFCE
:1006C000CE010E94D802E9CFDF91CF91089580E05A
:1006D00090E0892B29F00E94CE0281110E94000037
:1006E00080E090E0892B49F080E090E0892B29F0B0
:1006F0000E94000081110E94000080E090E0892BA0
:1007000049F080E090E0892B29F00E9400008111DF
:100710000E94000080E090E0892B49F080E090E0AA
:10072000892B29F00E94000081110C94000008958B
:10073000FC0101900020E9F73197AF01481B590BEC
:10074000BC018DE393E00C9464028F929F92AF9270
:10075000BF920F931F93CF93DF93CDB7DEB7A197CF
:100760000FB6F894DEBF0FBECDBF19A2423008F419
:100770004AE08E010F5D1F4F842E912CB12CA12CCD
:10078000A50194010E94360CE62FB901CA01EA3096
:10079000F4F4E05DD801EE938D01232B242B252B5F
:1007A00079F790E080E0109719F0CD010E9498034E
:1007B000A1960FB6F894DEBF0FBECDBFDF91CF91EB
:1007C0001F910F91BF90AF909F908F900895E95C1B
:1007D000E1CFCF92DF92EF92FF92CF93DF936B0145
:1007E0007C016DE28DE393E00E94FA02EC01662742
:1007F0007727CB016C197D098E099F094AE00E9479
:10080000A5038C0F9D1FDF91CF91FF90EF90DF909C
:10081000CF900895CF93DF930E949803EC0188E373
:1008200092E00E9498038C0F9D1FDF91CF91089555
:1008300060E084E00E94630160E085E00E94630163
:1008400083E090E090931502809314028BE392E092
:100850000C940A0460E084E00E94630161E085E09A
:100860000E94630182E090E090931502809314024D
:1008700083E592E00C940A044F925F926F927F920C
:100880008F929F92AF92BF92CF92DF92EF92FF92A0
:100890000F931F93CF936B017C01742EAC019B01CE
:1008A0000E94310C882399F08CE692E0CF911F9141
:1008B0000F91FF90EF90DF90CF90BF90AF909F90FF
:1008C0008F907F906F905F904F900C9498034601AB
:1008D0005701E894B7F82FEF3FEF4FE75FE7C50107
:1008E000B4010E94310C81110DC02FEF3FEF4FE793
:1008F0005FE7C501B4010E94600A18161CF480E786
:1009000092E0D4CF2FEF3FEF4FE75FE4C701B6018E
:100910000E94BF0B18161CF484E792E0C7CF2FEF9C
:100920003FEF4FE75FECC701B6010E94600A87FD09
:10093000F3CF20E030E0A901C701B6010E94600AB0
:1009400010E000E087FF0AC06DE28DE393E00E94B3
:10095000FA028C01F7FAF094F7F8F094C0E060E046
:1009600070E080E09FE37C1641F020E030E040E260
:1009700051E40E94650ACF5FF6CFA70196010E945D
:10098000F4092B013C010E94DE0A4B015C014AE0A4
:100990000E94A5037C01E00EF11ECC23C1F1C5012C
:1009A000B4010E940D0B9B01AC01C301B2010E9476
:1009B000F3094B015C016EE28DE393E00E94FA02C1
:1009C000E80EF91EC15018F120E030E040E251E499
:1009D000C501B4010E94C40B2B013C010E94DE0A38
:1009E0004B01B12CA12C4AE0C501B4010E94A50322
:1009F000E80EF91EC501B4010E940D0B9B01AC016C
:100A0000C301B2010E94F3094B015C01DBCFC701B6
:100A1000CF911F910F91FF90EF90DF90CF90BF90FB
:100A2000AF909F908F907F906F905F904F900895C0
:100A3000CF92DF92EF92FF92880F991F880F991F34
:100A4000FC01EE5EFD4F6081718182819381209176
:100A5000140230911502215031092430310538F546
:100A6000220F331F220F331FF901EA5EFD4F208151
:100A70003181428153810E94650A20911002309198
:100A8000110240911202509113020E94C40B6B019B
:100A90007C0142E00E943C0488E392E00E949803BB
:100AA000C701B601FF90EF90DF90CF90089520E04E
:100AB00030E040E85FEBDFCF1F920F920FB60F924E
:100AC00011242F933F938F939F93AF93BF93809164
:100AD000DA039091DB03A091DC03B091DD03309148
:100AE000380323E0230F2D3758F50196A11DB11DC2
:100AF000209338038093DA039093DB03A093DC0305
:100B0000B093DD038091390390913A03A0913B03A8
:100B1000B0913C030196A11DB11D809339039093C0
:100B20003A03A0933B03B0933C03BF91AF919F91D5
:100B30008F913F912F910F900FBE0F901F9018959E
:100B400026E8230F0296A11DB11DD2CF1F920F924E
:100B50000FB60F9211240BB60F922F933F934F9322
:100B60005F936F937F938F939F93AF93BF93EF9315
:100B7000FF93E0910E02F0910F021995FF91EF9112
:100B8000BF91AF919F918F917F916F915F914F91A5
:100B90003F912F910F900BBE0F900FBE0F901F90A3
:100BA00018951F920F920FB60F9211240BB60F9249
:100BB0002F933F934F935F936F937F938F939F9365
:100BC000AF93BF93EF93FF93E0910C02F0910D026E
:100BD0001995FF91EF91BF91AF919F918F917F9167
:100BE0006F915F914F913F912F910F900BBE0F909E
:100BF0000FBE0F901F9018951F920F920FB60F9275
:100C000011240BB60F922F933F934F935F936F93E3
:100C10007F938F939F93AF93BF93EF93FF93E09155
:100C20000202F09103021995FF91EF91BF91AF91EC
:100C30009F918F917F916F915F914F913F912F91F4
:100C40000F900BBE0F900FBE0F901F9018951F9224
:100C50000F920FB60F9211240BB60F922F933F9362
:100C60004F935F936F937F938F939F93AF93BF93B4
:100C7000EF93FF93E0910002F09101021995FF912B
:100C8000EF91BF91AF919F918F917F916F915F9104
:100C90004F913F912F910F900BBE0F900FBE0F9071
:100CA0001F9018951F920F920FB60F9211240BB63A
:100CB0000F922F933F934F935F936F937F938F93F5
:100CC0009F93AF93BF93EF93FF93E0910A02F0914C
:100CD0000B021995FF91EF91BF91AF919F918F9169
:100CE0007F916F915F914F913F912F910F900BBE2C
:100CF0000F900FBE0F901F9018951F920F920FB676
:100D00000F9211240BB60F922F933F934F935F9343
:100D10006F937F938F939F93AF93BF93EF93FF93C3
:100D2000E0910802F09109021995FF91EF91BF91AE
:100D3000AF919F918F917F916F915F914F913F9173
:100D40002F910F900BBE0F900FBE0F901F90189514
:100D50001F920F920FB60F9211240BB60F922F9382
:100D60003F934F935F936F937F938F939F93AF9333
:100D7000BF93EF93FF93E0910602F091070219955C
:100D8000FF91EF91BF91AF919F918F917F916F9163
:100D90005F914F913F912F910F900BBE0F900FBE1F
:100DA0000F901F9018951F920F920FB60F9211245B
:100DB0000BB60F922F933F934F935F936F937F9355
:100DC0008F939F93AF93BF93EF93FF93E0910402B0
:100DD000F09105021995FF91EF91BF91AF919F910D
:100DE0008F917F916F915F914F913F912F910F90D4
:100DF0000BBE0F900FBE0F901F9018951F920F9271
:100E00000FB60F9211240BB60F922F933F934F936F
:100E10005F936F937F938F939F93AF93BF93EF9362
:100E2000FF938DE393E00E94D802FF91EF91BF9171
:100E3000AF919F918F917F916F915F914F913F9172
:100E40002F910F900BBE0F900FBE0F901F90189513
:100E50001F920F920FB60F9211240BB60F922F9381
:100E60008F939F93EF93FF93E0914D03F0914E0387
:100E70008081E0915303F091540382FD1DC0908165
:100E8000809156038F5F8F7320915703821741F033
:100E9000E0915603F0E0E35CFC4F958F809356039E
:100EA000FF91EF919F918F912F910F900BBE0F901B
:100EB0000FBE0F901F9018958081F2CFEDE3F3E005
:100EC0001382128288EE93E0A0E0B0E084839583E1
:100ED000A683B7838AE292E09183808385EC90E0D9
:100EE0009587848784EC90E09787868780EC90E0F4
:100EF000918B808B81EC90E0938B828B82EC90E0E5
:100F0000958B848B86EC90E0978B868B118E128E5E
:100F1000138E148E2FB7F8948091DA039091DB032F
:100F2000A091DC03B091DD032FBF8093DE0390938B
:100F3000DF03A093E003B093E1030895789484B5B0
:100F4000826084BD84B5816084BD85B5826085BDC5
:100F500085B5816085BD80916E00816080936E0053
:100F60001092810080918100826080938100809145
:100F700081008160809381008091800081608093F6
:100F800080008091B10084608093B1008091B000B6
:100F900081608093B0008091910082608093910085
:100FA0008091910081608093910080919000816098
:100FB000809390008091A10082608093A100809135
:100FC000A10081608093A1008091A0008160809346
:100FD000A0008091210182608093210180912101F4
:100FE00081608093210180912001816080932001A4
:100FF00080917A00846080937A0080917A00826088
:1010000080937A0080917A00816080937A00809149
:101010007A00806880937A001092C100E0914D03BD
:10102000F0914E0382E08083E0914903F0914A03FE
:101030001082E0914B03F0914C0380E18083109289
:101040005503E0915103F091520386E08083E091D3
:101050004F03F0915003808180618083E0914F03C2
:10106000F0915003808188608083E0914F03F0917C
:101070005003808180688083E0914F03F09150039A
:1010800080818F7D808360E082E00E94EF0185E4B3
:1010900092E0909301028093000280916A00836045
:1010A00080936A00EC9A60E083E00E94EF018FE495
:1010B00092E0909303028093020280916A008C6018
:1010C00080936A00ED9A60E082E10E94EF0189E579
:1010D00092E090930B0280930A02809169008F73D3
:1010E000806480936900EB9A61E084E00E94EF01E4
:1010F00061E085E00E94EF018FB7F894C090DA03B9
:10110000D090DB03E090DC03F090DD038FBF6091B3
:10111000340370913503072E000C880B990B0E9445
:101120000F0B4B015C018091DE039091DF03A091D6
:10113000E003B091E103A7019601281B390B4A0B8C
:101140005B0BCA01B9010E940D0B20E030E04AE7B9
:1011500054E40E94650A9B01AC01C501B4010E94E0
:10116000650A20E030E040E951E40E94650A20E091
:1011700030E040E752E40E94C40B60931002709389
:101180001102809312029093130210923503109271
:101190003403C092DE03D092DF03E092E003F092CA
:1011A000E1030E94D70A072E000C880B990B0E94BE
:1011B0000F0B42E00E943C0488E792E00E940A0480
:1011C0008091360390913703181619060CF09AC0D7
:1011D0008091140290911502843091050CF079C031
:1011E0008230910509F449C08330910509F454C057
:1011F000019771F482E090E00E94180520E030E051
:1012000048E454E40E94BF0B181694F50E942A0487
:101210008091360390913703019790933703809321
:1012200036030E9420024B015C0184E6C82ED12CBB
:10123000E12CF12C0E942002681979098A099B0986
:10124000683E734081059105A8F331E0C31AD108C7
:10125000E108F10848EE840E43E0941EA11CB11C85
:10126000C114D104E104F10429F70E94670344CFBB
:101270008DE792E00E940A04CBCF83E090E00E94C9
:10128000180520E030E048E454E40E94BF0B181633
:101290007CF70E941804BCCF84E090E00E941805FF
:1012A00020E030E048E454E40E94BF0B181604F735
:1012B00061E084E00E94630161E085E00E946301D7
:1012C00084E090E090931502809314028AE992E002
:1012D000D1CF83EB92E00E94980360911402709149
:1012E0001502072E000C880B990B97FF07C00E9470
:1012F000E90388E392E00E9498038ACF4AE00E94C3
:10130000A503F7CF892B09F48CCF8091140290911B
:101310001502823091050CF44DC08330910561F1C6
:1013200084309105C1F10297F1F481E090E00E94D0
:10133000180520E030E84BEB55E40E94600A87FF77
:1013400018C060E084E00E94630160E085E00E94D4
:10135000630181E090E0909315028093140286ED82
:1013600092E00E940A04809136039091370301961F
:1013700054CF8EEE92E0F5CF82E090E00E94180507
:1013800020E030E84BEB55E40E94600A87FFF1CF84
:101390000E942A04E8CF83E090E00E94180520E034
:1013A00030E84BEB55E40E94600A87FFE2CF0E94D1
:1013B0001804D9CF8EE093E00E9498036091140244
:1013C00070911502072E000C880B990B97FF07C030
:1013D0000E94E90388E392E00E949803C4CF4AE0A8
:1013E0000E94A503F7CF5058BB27AA270E940B0ADB
:1013F0000C94850B0E94770B38F00E947E0B20F036
:1014000039F49F3F19F426F40C94740B0EF4E09514
:10141000E7FB0C946E0BE92F0E94960B58F3BA175A
:10142000620773078407950720F079F4A6F50C94FA
:10143000B80B0EF4E0950B2EBA2FA02D0B01B901BD
:1014400090010C01CA01A0011124FF27591B99F03A
:10145000593F50F4503E68F11A16F040A22F232F46
:10146000342F4427585FF3CF469537952795A79596
:10147000F0405395C9F77EF41F16BA0B620B730B3D
:10148000840BBAF09150A1F0FF0FBB1F661F771FAE
:10149000881FC2F70EC0BA0F621F731F841F48F463
:1014A000879577956795B795F7959E3F08F0B0CFEC
:1014B0009395880F08F09927EE0F979587950895D3
:1014C0000E944A0B08F481E008950E94790A0C9466
:1014D000850B0E947E0B58F00E94770B40F029F498
:1014E0005F3F29F00C946E0B51110C94B90B0C94C6
:1014F000740B0E94960B68F39923B1F3552391F373
:10150000951B550BBB27AA2762177307840738F072
:101510009F5F5F4F220F331F441FAA1FA9F335D0CF
:101520000E2E3AF0E0E832D091505040E695001C83
:10153000CAF72BD0FE2F29D0660F771F881FBB1F3D
:10154000261737074807AB07B0E809F0BB0B802D1B
:10155000BF01FF2793585F4F3AF09E3F510578F047
:101560000C946E0B0C94B90B5F3FE4F3983ED4F3EC
:10157000869577956795B795F7959F5FC9F7880F1B
:10158000911D9695879597F90895E1E0660F771F6D
:10159000881FBB1F621773078407BA0720F0621BFE
:1015A000730B840BBA0BEE1F88F7E09508950E9429
:1015B000DE0A6894B1110C94B90B08950E949E0B39
:1015C00088F09F5798F0B92F9927B751B0F0E1F004
:1015D000660F771F881F991F1AF0BA95C9F714C0B4
:1015E000B13091F00E94B80BB1E008950C94B80BA3
:1015F000672F782F8827B85F39F0B93FCCF38695ED
:1016000077956795B395D9F73EF490958095709549
:1016100061957F4F8F4F9F4F0895E89409C097FBC6
:101620003EF490958095709561957F4F8F4F9F4FB9
:101630009923A9F0F92F96E9BB279395F6958795FD
:1016400077956795B795F111F8CFFAF4BB0F11F4C0
:1016500060FF1BC06F5F7F4F8F4F9F4F16C0882367
:1016600011F096E911C0772321F09EE8872F762F9D
:1016700005C0662371F096E8862F70E060E02AF0DE
:101680009A95660F771F881FDAF7880F96958795CA
:1016900097F90895990F0008550FAA0BE0E8FEEF9F
:1016A00016161706E807F907C0F012161306E40726
:1016B000F50798F0621B730B840B950B39F40A261F
:1016C00061F0232B242B252B21F408950A2609F4FD
:1016D000A140A6958FEF811D811D089597F99F6701
:1016E00080E870E060E008959FEF80EC08950024AA
:1016F0000A941616170618060906089500240A9477
:1017000012161306140605060895092E0394000CFC
:1017100011F4882352F0BB0F40F4BF2B11F460FF8B
:1017200004C06F5F7F4F8F4F9F4F089557FD9058B4
:10173000440F551F59F05F3F71F04795880F97FB95
:10174000991F61F09F3F79F087950895121613064F
:101750001406551FF2CF4695F1DF08C0161617067E
:101760001806991FF1CF86957105610508940895B3
:10177000E894BB2766277727CB0197F908950E9445
:101780004A0B08F48FEF08950E94D70B0C94850B39
:101790000E94770B38F00E947E0B20F0952311F009
:1017A0000C946E0B0C94740B11240C94B90B0E94C6
:1017B000960B70F3959FC1F3950F50E0551F629FF4
:1017C000F001729FBB27F00DB11D639FAA27F00D9A
:1017D000B11DAA1F649F6627B00DA11D661F829FC1
:1017E0002227B00DA11D621F739FB00DA11D621FA6
:1017F000839FA00D611D221F749F3327A00D611DC3
:10180000231F849F600D211D822F762F6A2F1124A4
:101810009F5750409AF0F1F088234AF0EE0FFF1FD7
:10182000BB1F661F771F881F91505040A9F79E3F2E
:10183000510580F00C946E0B0C94B90B5F3FE4F3F0
:10184000983ED4F3869577956795B795F795E79584
:101850009F5FC1F7FE2B880F911D9695879597F98D
:1018600008950E944A0B880B990B0895A1E21A2E45
:10187000AA1BBB1BFD010DC0AA1FBB1FEE1FFF1F34
:10188000A217B307E407F50720F0A21BB30BE40B84
:10189000F50B661F771F881F991F1A9469F76095CB
:1018A0007095809590959B01AC01BD01CF01089585
:1018B000EE0FFF1F881F8BBF0790F691E02D199444
:0418C000F894FFCFCA
:1018C40063026302630263026302630263026302EC
:1018D400000080BF0100AAF13A4039B4C83F0000BB
:1018E400803FE17A343F00000000FA026402910272
:1018F4004703C202A002B4020D0A00536869667469
:10190400656420696E746F20746869726420676509
:101914006172005368696674656420696E746F202F
:101924007365636F6E642067656172006E616E003B
:10193400696E66006F7666002052504D00456E67F2
:10194400696E65207370656564206C6F7720666FBF
:10195400722075707368696674005368696674658B
:101964006420696E746F20666F7572746820676591
:10197400617200757020736869667420696E76619F
:101984006C69643A2063757272656E742067656170
:101994007220697320005368696674656420696EF7
:1019A400746F206669727374206765617200456E96
:1019B40067696E652073706565642068696768206F
:1019C400666F7220646F776E736869667400646F03
:1019D400776E20736869667420696E76616C6964D9
:1019E4003A2063757272656E74206765617220694E
:0419F400732000005C
:00000001FF
