:100000000C9430010C94C2070C9497070C946C0765
:100010000C9441070C9416070C94EB060C94C00644
:100020000C9495060C9461010C9461010C9461018F
:100030000C9461010C9461010C9461010C946101B8
:100040000C9461010C9461010C9461010C946101A8
:100050000C9461010C9461010C9461010C944B06A9
:100060000C9461010C9417080C94ED070C94610139
:100070000C9461010C9461010C9461010C94610178
:100080000C9461010C9461010C9461010C94610168
:100090000C9461010C9461010C9461010C94610158
:1000A0000C9461010C9461010C9461010C94610148
:1000B0000C9461010C9461010C9461010C94610138
:1000C0000C9461010C9461010C9461010C94610128
:1000D0000C9461010C9461010C9461010C94610118
:1000E0000C9461010C94E3010C94A9010C94F101AE
:1000F0000C94FF010C945E020C94C0010C94FB0163
:100100000C94DF010C94D9010C94E7010C94C40108
:100110000C9442030C94C8010C9436020C945F02B8
:100120000C949B020C94BD020C94D5010C94ED012F
:100130000C94AF020C944A020C94CC010C948C02E7
:100140000C9440020C94F5010C94AE010C94CF0178
:100150000C944D080C94F5020000210024002700A7
:100160002A002D00300033000101000004010701C6
:100170000A0100002200250028002B002E0031007B
:10018000340002010000050108010B010505050509
:10019000070508080808020202020A0A08080404FF
:1001A000040401010101010101010303030303032D
:1001B0000303040707070C0C0C0C0C0C0C0C0202BC
:1001C000020206060606060606060B0B0B0B0B0BB9
:1001D0000B0B010210202008081020401020408046
:1001E00002010201080402010102040810204080FB
:1001F0008040201008040201800402018040201089
:1002000008040201080402010102040810204080D1
:10021000010204081020408000000A0B02090C0DA6
:100220000E080703040100000000000000000000A9
:1002300000000000000000000000000000000000BE
:10024000000000001211100000000000000000007B
:1002500000000000000000000000000000004D0849
:1002600011241FBECFEFD1E2DEBFCDBF00E00CBF37
:1002700013E0A0E0B2E0E2E7F9E100E00BBF02C06A
:1002800007900D92A236B107D9F724E0A2E6B3E0B9
:1002900001C01D92A231B207E1F711E0C0E3D1E045
:1002A00000E006C021970109802FFE010E94AF0CDB
:1002B000CF32D10780E00807A9F70E948D080C947F
:1002C000B70C0C94000080917B00877F80937B00AB
:1002D00080E480937C0080917A00806480937A002F
:1002E00080917A0086FDFCCF809178009091790012
:1002F0000895282F30E0F901E85EFD4F9491F9014F
:10030000EE52FE4F449124573E4FF901249122238F
:1003100009F435C0992311F191509231F8F4E92F85
:10032000F0E08827E956FE4F8F4F0C94AF0CC801C0
:10033000CC01A901C001C401AE01CF01D501D90191
:10034000DF01E301E701ED01F101AE01F501FB0180
:10035000FF01809180008F7780938000E22FF0E092
:10036000EE0FFF1FEE58FE4FA591B4918FB7F89492
:10037000EC91611148C040954E234C938FBF089576
:10038000809180008F7DE8CF80918000877FE4CFCF
:1003900084B58F7784BDE2CF84B58F7DFBCF80910C
:1003A000B0008F778093B000D9CF8091B0008F7D5F
:1003B000F9CF809190008F7780939000CFCF80917C
:1003C00090008F7DF9CF80919000877FF5CF80914D
:1003D000A0008F778093A000C1CF8091A0008F7D77
:1003E000F9CF8091A000877FF5CF809120018F7792
:1003F00080932001B3CF809120018F7DF9CF809130
:100400002001877FF5CF4E2BB8CFCF93DF9390E0BD
:10041000FC01EE52FE4F249184579E4FFC018491C3
:100420008823D1F090E0880F991FFC01E85AFE4F15
:10043000A591B491FC01EE58FE4FC591D491611184
:100440000EC09FB7F8948C91E22FE0958E238C9389
:100450002881E223E8839FBFDF91CF9108958FB772
:10046000F894EC91E22BEC938FBFF6CF809166036A
:1004700090916703019690936703809366030895B4
:10048000809166039091670301979093670380932F
:10049000660308958091620390916303A0916403C1
:1004A000B09165030196A11DB11D809362039093E5
:1004B0006303A0936403B093650308950895AF9216
:1004C000BF92CF92DF92EF92FF920F931F93CF9341
:1004D000DF936C017B018B01040F151FEB015E01A3
:1004E000AE18BF08C017D10759F06991D601ED9138
:1004F000FC910190F081E02DC6011995892B79F7C7
:10050000C501DF91CF911F910F91FF90EF90DF9088
:10051000CF90BF90AF900895FC01538D448D252F4F
:1005200030E0842F90E0821B930B541710F0CF968D
:10053000089501970895FC01918D828D981761F0BF
:10054000A28DAE0FBF2FB11D5D968C91928D9F5FD6
:100550009F73928F90E008958FEF9FEF0895FC01B5
:10056000918D828D981731F0828DE80FF11D858D68
:1005700090E008958FEF9FEF0895FC01918D228DFB
:10058000892F90E0805C9F4F821B91098F73992780
:1005900008958DE693E00E94BD0221E0892B09F4C5
:1005A00020E0822F0895FC01A48DA80FB92FB11D62
:1005B000A35ABF4F2C91848D90E001968F73992799
:1005C000848FA689B7892C93A089B1898C91837077
:1005D00080648C93938D848D981306C00288F38970
:1005E000E02D80818F7D80830895EF92FF920F939D
:1005F0001F93CF93DF93EC0181E0888F9B8D8C8DCF
:1006000098131AC0E889F989808185FF15C09FB7C2
:10061000F894EE89FF896083E889F9898081837085
:10062000806480839FBF81E090E0DF91CF911F9134
:100630000F91FF90EF900895F62E0B8D10E00F5F55
:100640001F4F0F731127E02E8C8D8E110CC00FB62B
:1006500007FCFACFE889F989808185FFF5CFCE01C3
:100660000E94D302F1CFEB8DEC0FFD2FF11DE35A69
:10067000FF4FF0829FB7F8940B8FEA89FB89808146
:100680008062CFCFCF93DF93EC01888D8823B9F0C0
:10069000AA89BB89E889F9898C9185FD03C080818D
:1006A00086FD0DC00FB607FCF7CF8C9185FFF2CF0A
:1006B000808185FFEDCFCE010E94D302E9CFDF918B
:1006C000CF91089580E090E0892B29F00E94C90223
:1006D00081110E94000080E090E0892B49F080E0C9
:1006E00090E0892B29F00E94000081110E940000F7
:1006F00080E090E0892B49F080E090E0892B29F0A0
:100700000E94000081110E94000080E090E0892B8F
:1007100049F080E090E0892B29F00E9400008111CF
:100720000C9400000895FC0101900020E9F7319736
:10073000AF01481B590BBC018DE693E00C945F029E
:100740008F929F92AF92BF920F931F93CF93DF939D
:10075000CDB7DEB7A1970FB6F894DEBF0FBECDBF01
:1007600019A2423008F44AE08E010F5D1F4F842E1B
:10077000912CB12CA12CA50194010E948D0CE62F87
:10078000B901CA01EA30F4F4E05DD801EE938D01BD
:10079000232B242B252B79F790E080E0109719F07C
:1007A000CD010E949303A1960FB6F894DEBF0FBE51
:1007B000CDBFDF91CF911F910F91BF90AF909F90D0
:1007C0008F900895E95CE1CFCF92DF92EF92FF9294
:1007D000CF93DF936B017C016DE28DE693E00E9485
:1007E000F502EC0166277727CB016C197D098E098C
:1007F0009F094AE00E94A0038C0F9D1FDF91CF91BB
:10080000FF90EF90DF90CF900895CF93DF930E94F9
:100810009303EC0186E392E00E9493038C0F9D1FEB
:10082000DF91CF91089561E084E00E94790161E059
:1008300085E00E94790183E090E090931302809319
:10084000120289E392E00C94050461E084E00E94C6
:10085000790160E085E00E94790182E090E0909368
:1008600013028093120281E592E00C9405044F92EA
:100870005F926F927F928F929F92AF92BF92CF9230
:10088000DF92EF92FF920F931F93CF936B017C0146
:10089000742EAC019B010E94880C882399F08AE693
:1008A00092E0CF911F910F91FF90EF90DF90CF904A
:1008B000BF90AF909F908F907F906F905F904F9080
:1008C0000C94930346015701E894B7F82FEF3FEFDC
:1008D0004FE75FE7C501B4010E94880C81110DC08C
:1008E0002FEF3FEF4FE75FE7C501B4010E94B70A62
:1008F00018161CF48EE692E0D4CF2FEF3FEF4FE7AF
:100900005FE4C701B6010E94160C18161CF482E7BA
:1009100092E0C7CF2FEF3FEF4FE75FECC701B60183
:100920000E94B70A87FDF3CF20E030E0A901C7019C
:10093000B6010E94B70A10E000E087FF0AC06DE22E
:100940008DE693E00E94F5028C01F7FAF094F7F837
:10095000F094C0E060E070E080E09FE37C1641F03E
:1009600020E030E040E251E40E94BC0ACF5FF6CFC5
:10097000A70196010E944B0A2B013C010E94350BF6
:100980004B015C014AE00E94A0037C01E00EF11ED5
:10099000CC23C1F1C501B4010E94640B9B01AC01E1
:1009A000C301B2010E944A0A4B015C016EE28DE66E
:1009B00093E00E94F502E80EF91EC15018F120E004
:1009C00030E040E251E4C501B4010E941B0C2B0150
:1009D0003C010E94350B4B01B12CA12C4AE0C50112
:1009E000B4010E94A003E80EF91EC501B4010E94E3
:1009F000640B9B01AC01C301B2010E944A0A4B0186
:100A00005C01DBCFC701CF911F910F91FF90EF9059
:100A1000DF90CF90BF90AF909F908F907F906F901E
:100A20005F904F9008958F929F92AF92BF92CF9216
:100A3000DF92EF92FF928FB7F89480900A04909023
:100A40000B04A0900C04B0900D048FBF6091620362
:100A50007091630380916403909165030E94640B1D
:100A60006B017C0180910E0490910F04A091100401
:100A7000B0911104A5019401281B390B4A0B5B0BA3
:100A8000CA01B9010E94640B20E030E04AE754E457
:100A90000E94BC0A9B01AC01C701B6010E94BC0ABE
:100AA00020E030E040E951E40E94BC0A20E030E060
:100AB00040E752E40E941B0C6B017C011092620320
:100AC00010926303109264031092650380920E04E7
:100AD00090920F04A0921004B092110442E00E9480
:100AE000370486E392E00E949303C701B6010E9497
:100AF0002E0BCB01FF90EF90DF90CF90BF90AF9087
:100B00009F908F900895CF92DF92EF92FF92CF93B4
:100B1000DF93EC010E941305BC01990F880B990B20
:100B20000E94660B6B017C01CC0FDD1FCC0FDD1F1B
:100B3000C05FDD4F688179818A819B81209112029B
:100B400030911302215031092430310518F5220F5C
:100B5000331F220F331FF901EC5EFD4F20813181DD
:100B6000428153810E94BC0AA70196010E941B0C7E
:100B70006B017C0142E00E94370486E392E00E9410
:100B80009303C701B601DF91CF91FF90EF90DF9003
:100B9000CF90089520E030E040E85FEBE3CFCF93C3
:100BA000DF93BC01990F880B990B97FF0CC00E9433
:100BB000E403EC0186E392E00E9493038C0F9D1FF7
:100BC000DF91CF9108954AE00E94A003F2CF809177
:100BD000120290911302823091050CF451C08330BF
:100BE000910581F184309105E1F10297F1F481E002
:100BF00090E00E94830520E030E84BEB55E40E9432
:100C0000B70A87FF1CC060E084E00E94790160E0C1
:100C100085E00E94790181E090E090931302809337
:100C2000120286E792E00E9405048091660390918B
:100C300067030196909367038093660308958EE897
:100C400092E0F1CF82E090E00E94830520E030E85E
:100C50004BEB55E40E94B70A87FFF1CF0E942504B1
:100C6000E4CF83E090E00E94830520E030E84BEB86
:100C700055E40E94B70A87FFE2CF0E941304D5CF44
:100C80008EEA92E00E9493038091120290911302E7
:100C90000E94CF05CACF1F920F920FB60F92112458
:100CA0002F933F938F939F93AF93BF9380910A04A9
:100CB00090910B04A0910C04B0910D0430916C0341
:100CC00023E0230F2D3758F50196A11DB11D209368
:100CD0006C0380930A0490930B04A0930C04B093CC
:100CE0000D048091680390916903A0916A03B0910B
:100CF0006B030196A11DB11D809368039093690356
:100D0000A0936A03B0936B03BF91AF919F918F91B2
:100D10003F912F910F900FBE0F901F90189526E8CE
:100D2000230F0296A11DB11DD2CF1F920F920FB6B5
:100D30000F9211240BB60F922F933F934F935F9313
:100D40006F937F938F939F93AF93BF93EF93FF9393
:100D5000E0910E02F0910F021995FF91EF91BF9172
:100D6000AF919F918F917F916F915F914F913F9143
:100D70002F910F900BBE0F900FBE0F901F901895E4
:100D80001F920F920FB60F9211240BB60F922F9352
:100D90003F934F935F936F937F938F939F93AF9303
:100DA000BF93EF93FF93E0910C02F0910D02199520
:100DB000FF91EF91BF91AF919F918F917F916F9133
:100DC0005F914F913F912F910F900BBE0F900FBEEF
:100DD0000F901F9018951F920F920FB60F9211242B
:100DE0000BB60F922F933F934F935F936F937F9325
:100DF0008F939F93AF93BF93EF93FF93E091020282
:100E0000F09103021995FF91EF91BF91AF919F91DE
:100E10008F917F916F915F914F913F912F910F90A3
:100E20000BBE0F900FBE0F901F9018951F920F9240
:100E30000FB60F9211240BB60F922F933F934F933F
:100E40005F936F937F938F939F93AF93BF93EF9332
:100E5000FF93E0910002F09101021995FF91EF914B
:100E6000BF91AF919F918F917F916F915F914F91C2
:100E70003F912F910F900BBE0F900FBE0F901F90C0
:100E800018951F920F920FB60F9211240BB60F9266
:100E90002F933F934F935F936F937F938F939F9382
:100EA000AF93BF93EF93FF93E0910A02F0910B028F
:100EB0001995FF91EF91BF91AF919F918F917F9184
:100EC0006F915F914F913F912F910F900BBE0F90BB
:100ED0000FBE0F901F9018951F920F920FB60F9292
:100EE00011240BB60F922F933F934F935F936F9301
:100EF0007F938F939F93AF93BF93EF93FF93E09173
:100F00000802F09109021995FF91EF91BF91AF91FD
:100F10009F918F917F916F915F914F913F912F9111
:100F20000F900BBE0F900FBE0F901F9018951F9241
:100F30000F920FB60F9211240BB60F922F933F937F
:100F40004F935F936F937F938F939F93AF93BF93D1
:100F5000EF93FF93E0910602F09107021995FF913C
:100F6000EF91BF91AF919F918F917F916F915F9121
:100F70004F913F912F910F900BBE0F900FBE0F908E
:100F80001F9018951F920F920FB60F9211240BB657
:100F90000F922F933F934F935F936F937F938F9312
:100FA0009F93AF93BF93EF93FF93E0910402F0916F
:100FB00005021995FF91EF91BF91AF919F918F918C
:100FC0007F916F915F914F913F912F910F900BBE49
:100FD0000F900FBE0F901F9018951F920F920FB693
:100FE0000F9211240BB60F922F933F934F935F9361
:100FF0006F937F938F939F93AF93BF93EF93FF93E1
:101000008DE693E00E94D302FF91EF91BF91AF91E3
:101010009F918F917F916F915F914F913F912F9110
:101020000F900BBE0F900FBE0F901F9018951F9240
:101030000F920FB60F9211240BB60F922F938F932E
:101040009F93EF93FF93E0917D03F0917E03808166
:10105000E0918303F091840382FD1DC09081809113
:1010600086038F5F8F7320918703821741F0E09191
:101070008603F0E0E359FC4F958F80938603FF9140
:10108000EF919F918F912F910F900BBE0F900FBEFC
:101090000F901F9018958081F2CFEDE6F3E0138258
:1010A000128288EE93E0A0E0B0E084839583A6836B
:1010B000B78388E292E09183808385EC90E0958706
:1010C000848784EC90E09787868780EC90E0918B12
:1010D000808B81EC90E0938B828B82EC90E0958BFF
:1010E000848B86EC90E0978B868B118E128E138EFC
:1010F000148E2FB7F89480910A0490910B04A0915C
:101100000C04B0910D042FBF80930E0490930F0434
:10111000A0931004B09311040895789484B582606C
:1011200084BD84B5816084BD85B5826085BD85B58B
:10113000816085BD80916E00816080936E00109209
:101140008100809181008260809381008091810084
:101150008160809381008091800081608093800015
:101160008091B10084608093B1008091B000816073
:101170008093B00080919100826080939100809173
:1011800091008160809391008091900081608093B4
:1011900090008091A10082608093A1008091A100C5
:1011A00081608093A1008091A00081608093A00065
:1011B00080912101826080932101809121018160D1
:1011C0008093210180912001816080932001809192
:1011D0007A00846080937A0080917A0082608093A4
:1011E0007A0080917A00816080937A0080917A0001
:1011F000806880937A001092C100E0917D03F091A5
:101200007E0382E08083E0917903F0917A0310827B
:10121000E0917B03F0917C0380E180831092850351
:10122000E0918103F091820386E08083E0917F0367
:10123000F0918003808180618083E0917F03F09151
:101240008003808188608083E0917F03F091800338
:10125000808180688083E0917F03F09180038081AA
:101260008F7D808360E082E00E94050286E392E049
:10127000909301028093000280916A0083608093C2
:101280006A00EC9A60E083E00E94050280E492E04C
:10129000909303028093020280916A008C60809395
:1012A0006A00ED9A60E082E10E9405028AE492E021
:1012B00090930B0280930A02809169008F7380647F
:1012C00080936900EB9A61E084E00E94050261E08E
:1012D00085E00E94050261E083E10E94050260E072
:1012E00083E10E947901C4E0D0E003E010E0809146
:1012F0001202909113020197049740F061E083E19C
:101300000E94790183ED92E00E9405042FB7F894C2
:1013100080910A0490910B04A0910C04B0910D04EB
:101320002FBF40910E0450910F04609110047091F2
:101330001104841B950BA60BB70B81309C45A6426C
:10134000B54010F00E9413050E9463018D32914058
:101350000CF442C08091120290911302049711F490
:101360000E94E7051093110200931002809166031A
:1013700090916703181619060CF086C0809112022E
:10138000909113022091100230911102821793075D
:101390000CF056C08230910549F183309105A9F1D6
:1013A000019771F482E090E00E94830520E030E034
:1013B00048E454E40E94160C18169CF40E9425047C
:1013C00080916603909167030197909367038093E0
:1013D00066030E9462038BCFD0931102C093100268
:1013E000C5CF8BEE92E00E940504EACF83E090E047
:1013F0000E94830520E030E048E454E40E94160C8B
:1014000018167CF70E941304DBCF84E090E00E9462
:10141000830520E030E048E454E40E94160C1816DE
:1014200004F760E084E00E94790161E085E00E94B9
:101430007901D0931302C093120288E093E0D3CFD6
:101440002330310591F481E293E00E9493030E94DE
:101450006301BC01990F880B990B97FF11C00E9483
:10146000E40387E293E00E9405048EE393E00E9488
:10147000930380911202909113020E94CF05A0CF96
:101480004AE00E94A003EDCF892B09F4A2CF0E946D
:10149000E7059FCF5058BB27AA270E94620A0C94E9
:1014A000DC0B0E94CE0B38F00E94D50B20F039F4F3
:1014B0009F3F19F426F40C94CB0B0EF4E095E7FB58
:1014C0000C94C50BE92F0E94ED0B58F3BA17620775
:1014D00073078407950720F079F4A6F50C940F0C98
:1014E0000EF4E0950B2EBA2FA02D0B01B90190013F
:1014F0000C01CA01A0011124FF27591B99F0593F83
:1015000050F4503E68F11A16F040A22F232F342FCA
:101510004427585FF3CF469537952795A795F04018
:101520005395C9F77EF41F16BA0B620B730B840B2D
:10153000BAF09150A1F0FF0FBB1F661F771F881FE5
:10154000C2F70EC0BA0F621F731F841F48F487953D
:1015500077956795B795F7959E3F08F0B0CF93952F
:10156000880F08F09927EE0F9795879508950E94A8
:10157000A10B08F481E008950E94D00A0C94DC0BC2
:101580000E94D50B58F00E94CE0B40F029F45F3F2B
:1015900029F00C94C50B51110C94100C0C94CB0B2E
:1015A0000E94ED0B68F39923B1F3552391F3951B3A
:1015B000550BBB27AA2762177307840738F09F5F74
:1015C0005F4F220F331F441FAA1FA9F335D00E2EE1
:1015D0003AF0E0E832D091505040E695001CCAF74E
:1015E0002BD0FE2F29D0660F771F881FBB1F261711
:1015F00037074807AB07B0E809F0BB0B802DBF01E8
:10160000FF2793585F4F3AF09E3F510578F00C94B6
:10161000C50B0C94100C5F3FE4F3983ED4F3869511
:1016200077956795B795F7959F5FC9F7880F911DD7
:101630009695879597F90895E1E0660F771F881FC3
:10164000BB1F621773078407BA0720F0621B730B76
:10165000840BBA0BEE1F88F7E09508950E94350BB6
:101660006894B1110C94100C08950E94F50B88F049
:101670009F5798F0B92F9927B751B0F0E1F0660F56
:10168000771F881F991F1AF0BA95C9F714C0B13097
:1016900091F00E940F0CB1E008950C940F0C672F8D
:1016A000782F8827B85F39F0B93FCCF386957795C6
:1016B0006795B395D9F73EF49095809570956195AF
:1016C0007F4F8F4F9F4F0895E89409C097FB3EF4DA
:1016D00090958095709561957F4F8F4F9F4F99237F
:1016E000A9F0F92F96E9BB279395F69587957795FD
:1016F0006795B795F111F8CFFAF4BB0F11F460FFBD
:101700001BC06F5F7F4F8F4F9F4F16C0882311F014
:1017100096E911C0772321F09EE8872F762F05C028
:10172000662371F096E8862F70E060E02AF09A95C3
:10173000660F771F881FDAF7880F9695879597F9B8
:101740000895990F0008550FAA0BE0E8FEEF161652
:101750001706E807F907C0F012161306E407F507A5
:1017600098F0621B730B840B950B39F40A2661F019
:10177000232B242B252B21F408950A2609F4A140BC
:10178000A6958FEF811D811D089597F99F6780E8C9
:1017900070E060E008959FEF80EC089500240A94C3
:1017A0001616170618060906089500240A9412163C
:1017B0001306140605060895092E0394000C11F46F
:1017C000882352F0BB0F40F4BF2B11F460FF04C01C
:1017D0006F5F7F4F8F4F9F4F089557FD9058440F75
:1017E000551F59F05F3F71F04795880F97FB991F80
:1017F00061F09F3F79F0879508951216130614063D
:10180000551FF2CF4695F1DF08C0161617061806C9
:10181000991FF1CF86957105610508940895E894A4
:10182000BB2766277727CB0197F908950E94A10B64
:1018300008F48FEF08950E942E0C0C94DC0B0E948C
:10184000CE0B38F00E94D50B20F0952311F00C94AC
:10185000C50B0C94CB0B11240C94100C0E94ED0BB7
:1018600070F3959FC1F3950F50E0551F629FF001F3
:10187000729FBB27F00DB11D639FAA27F00DB11D0C
:10188000AA1F649F6627B00DA11D661F829F222795
:10189000B00DA11D621F739FB00DA11D621F839F1C
:1018A000A00D611D221F749F3327A00D611D231FF2
:1018B000849F600D211D822F762F6A2F11249F5740
:1018C00050409AF0F1F088234AF0EE0FFF1FBB1F43
:1018D000661F771F881F91505040A9F79E3F510502
:1018E00080F00C94C50B0C94100C5F3FE4F3983E11
:1018F000D4F3869577956795B795F795E7959F5FAC
:10190000C1F7FE2B880F911D9695879597F908953D
:101910000E94A10B880B990B0895A1E21A2EAA1B15
:10192000BB1BFD010DC0AA1FBB1FEE1FFF1FA2178F
:10193000B307E407F50720F0A21BB30BE40BF50B8C
:10194000661F771F881F991F1A9469F76095709515
:10195000809590959B01AC01BD01CF010895EE0FDC
:10196000FF1F881F8BBF0790F691E02D1994F89404
:02197000FFCFA7
:101972005E025E025E025E025E025E025E025E0265
:1019820004000100AAF13A4039B4C83F0000803F88
:10199200E17A343F00000000F5025F028C0242034C
:1019A200BD029B02AF020D0A00536869667465644A
:1019B20020696E746F207468697264206765617251
:1019C200005368696674656420696E746F2073657C
:1019D200636F6E642067656172006E616E00696E8E
:1019E20066006F7666005368696674656420696E86
:1019F200746F206669727374206765617200456E48
:101A020067696E6520737065656420686967682020
:101A1200666F7220646F776E736869667400646FB4
:101A2200776E20736869667420696E76616C69648A
:101A32003A2063757272656E7420676561722069FF
:101A4200732000435249544943414C204552524F5E
:101A5200522C2045584954494E4700456E67696EDD
:101A620065207370656564206C6F7720666F7220E5
:101A7200757073686966740053686966746564207A
:101A8200696E746F20666F75727468206765617223
:101A9200005450533A2000466F757274682067658F
:101AA2006172206C6F636B6564206F757400757072
:101AB20020736869667420696E76616C69643A2085
:101AC20063757272656E7420676561722069732036
:021AD200000012
:00000001FF
